{
  "contractName": "Marketplace",
  "abi": [
    {
      "constant": true,
      "inputs": [
        {
          "name": "",
          "type": "uint256"
        }
      ],
      "name": "admins",
      "outputs": [
        {
          "name": "",
          "type": "address"
        }
      ],
      "payable": false,
      "stateMutability": "view",
      "type": "function",
      "signature": "0x14bfd6d0"
    },
    {
      "constant": true,
      "inputs": [],
      "name": "manager",
      "outputs": [
        {
          "name": "",
          "type": "address"
        }
      ],
      "payable": false,
      "stateMutability": "view",
      "type": "function",
      "signature": "0x481c6a75"
    },
    {
      "constant": true,
      "inputs": [
        {
          "name": "",
          "type": "address"
        },
        {
          "name": "",
          "type": "uint256"
        }
      ],
      "name": "storeownerToStorefronts",
      "outputs": [
        {
          "name": "",
          "type": "address"
        }
      ],
      "payable": false,
      "stateMutability": "view",
      "type": "function",
      "signature": "0x5b21b106"
    },
    {
      "constant": true,
      "inputs": [
        {
          "name": "",
          "type": "uint256"
        }
      ],
      "name": "deployedStorefronts",
      "outputs": [
        {
          "name": "",
          "type": "address"
        }
      ],
      "payable": false,
      "stateMutability": "view",
      "type": "function",
      "signature": "0x8521acf9"
    },
    {
      "constant": true,
      "inputs": [
        {
          "name": "",
          "type": "uint256"
        }
      ],
      "name": "storeowners",
      "outputs": [
        {
          "name": "",
          "type": "address"
        }
      ],
      "payable": false,
      "stateMutability": "view",
      "type": "function",
      "signature": "0x8a610565"
    },
    {
      "constant": true,
      "inputs": [
        {
          "name": "",
          "type": "address"
        }
      ],
      "name": "storeownerToId",
      "outputs": [
        {
          "name": "",
          "type": "uint256"
        }
      ],
      "payable": false,
      "stateMutability": "view",
      "type": "function",
      "signature": "0xa3c0f451"
    },
    {
      "constant": true,
      "inputs": [
        {
          "name": "",
          "type": "address"
        }
      ],
      "name": "storeAddressToStoreowner",
      "outputs": [
        {
          "name": "",
          "type": "address"
        }
      ],
      "payable": false,
      "stateMutability": "view",
      "type": "function",
      "signature": "0xbf81e259"
    },
    {
      "constant": true,
      "inputs": [
        {
          "name": "",
          "type": "address"
        }
      ],
      "name": "adminToId",
      "outputs": [
        {
          "name": "",
          "type": "uint256"
        }
      ],
      "payable": false,
      "stateMutability": "view",
      "type": "function",
      "signature": "0xd7fd9e90"
    },
    {
      "constant": true,
      "inputs": [
        {
          "name": "",
          "type": "address"
        }
      ],
      "name": "storeAddressToId",
      "outputs": [
        {
          "name": "",
          "type": "uint256"
        }
      ],
      "payable": false,
      "stateMutability": "view",
      "type": "function",
      "signature": "0xe6e2d3d3"
    },
    {
      "inputs": [],
      "payable": false,
      "stateMutability": "nonpayable",
      "type": "constructor",
      "signature": "constructor"
    },
    {
      "anonymous": false,
      "inputs": [
        {
          "indexed": true,
          "name": "newStorefront",
          "type": "address"
        }
      ],
      "name": "storefrontCreated",
      "type": "event",
      "signature": "0xc39365e80b65656fc2da5913f11f6ae75b768c0cff41d22ea1e8d3e380cb6f28"
    },
    {
      "constant": false,
      "inputs": [
        {
          "name": "_newAdmin",
          "type": "address"
        }
      ],
      "name": "addAdmin",
      "outputs": [],
      "payable": false,
      "stateMutability": "nonpayable",
      "type": "function",
      "signature": "0x70480275"
    },
    {
      "constant": false,
      "inputs": [
        {
          "name": "_currAdmin",
          "type": "address"
        }
      ],
      "name": "removeAdmin",
      "outputs": [],
      "payable": false,
      "stateMutability": "nonpayable",
      "type": "function",
      "signature": "0x1785f53c"
    },
    {
      "constant": false,
      "inputs": [
        {
          "name": "_newStoreowner",
          "type": "address"
        }
      ],
      "name": "addStoreowner",
      "outputs": [],
      "payable": false,
      "stateMutability": "nonpayable",
      "type": "function",
      "signature": "0x6ce5c206"
    },
    {
      "constant": false,
      "inputs": [
        {
          "name": "_currStoreowner",
          "type": "address"
        }
      ],
      "name": "removeStoreowner",
      "outputs": [],
      "payable": false,
      "stateMutability": "nonpayable",
      "type": "function",
      "signature": "0x7ccbcc0b"
    },
    {
      "constant": false,
      "inputs": [
        {
          "name": "_storeName",
          "type": "bytes32"
        }
      ],
      "name": "createStorefront",
      "outputs": [],
      "payable": false,
      "stateMutability": "nonpayable",
      "type": "function",
      "signature": "0xe0605cf8"
    },
    {
      "constant": false,
      "inputs": [
        {
          "name": "_storeAddress",
          "type": "address"
        }
      ],
      "name": "removeStorefront",
      "outputs": [],
      "payable": false,
      "stateMutability": "nonpayable",
      "type": "function",
      "signature": "0x64469e88"
    },
    {
      "constant": true,
      "inputs": [],
      "name": "getDeployedStorefronts",
      "outputs": [
        {
          "name": "",
          "type": "address[]"
        }
      ],
      "payable": false,
      "stateMutability": "view",
      "type": "function",
      "signature": "0xca1d1ff3"
    },
    {
      "constant": true,
      "inputs": [],
      "name": "getAdmins",
      "outputs": [
        {
          "name": "",
          "type": "address[]"
        }
      ],
      "payable": false,
      "stateMutability": "view",
      "type": "function",
      "signature": "0x31ae450b"
    },
    {
      "constant": true,
      "inputs": [],
      "name": "getStoreowners",
      "outputs": [
        {
          "name": "",
          "type": "address[]"
        }
      ],
      "payable": false,
      "stateMutability": "view",
      "type": "function",
      "signature": "0xa418fdc9"
    },
    {
      "constant": true,
      "inputs": [],
      "name": "getNewAdminId",
      "outputs": [
        {
          "name": "",
          "type": "uint256"
        }
      ],
      "payable": false,
      "stateMutability": "view",
      "type": "function",
      "signature": "0xf8b71a05"
    },
    {
      "constant": true,
      "inputs": [],
      "name": "getNewStoreownerId",
      "outputs": [
        {
          "name": "",
          "type": "uint256"
        }
      ],
      "payable": false,
      "stateMutability": "view",
      "type": "function",
      "signature": "0xc92bdc4e"
    },
    {
      "constant": true,
      "inputs": [],
      "name": "getNewStorefrontId",
      "outputs": [
        {
          "name": "",
          "type": "uint256"
        }
      ],
      "payable": false,
      "stateMutability": "view",
      "type": "function",
      "signature": "0x4bbf8048"
    },
    {
      "constant": true,
      "inputs": [
        {
          "name": "_storeowner",
          "type": "address"
        }
      ],
      "name": "getOwnerStorefronts",
      "outputs": [
        {
          "name": "",
          "type": "address[]"
        }
      ],
      "payable": false,
      "stateMutability": "view",
      "type": "function",
      "signature": "0xe7c5d7f9"
    }
  ],
  "bytecode": "0x608060405234801561001057600080fd5b50336000806101000a81548173ffffffffffffffffffffffffffffffffffffffff021916908373ffffffffffffffffffffffffffffffffffffffff160217905550612c4f806100606000396000f3fe608060405260043610610128576000357c0100000000000000000000000000000000000000000000000000000000900463ffffffff16806314bfd6d01461012d5780631785f53c146101a857806331ae450b146101f9578063481c6a75146102655780634bbf8048146102bc5780635b21b106146102e757806364469e88146103825780636ce5c206146103d357806370480275146104245780637ccbcc0b146104755780638521acf9146104c65780638a61056514610541578063a3c0f451146105bc578063a418fdc914610621578063bf81e2591461068d578063c92bdc4e1461071e578063ca1d1ff314610749578063d7fd9e90146107b5578063e0605cf81461081a578063e6e2d3d314610855578063e7c5d7f9146108ba578063f8b71a0514610960575b600080fd5b34801561013957600080fd5b506101666004803603602081101561015057600080fd5b810190808035906020019092919050505061098b565b604051808273ffffffffffffffffffffffffffffffffffffffff1673ffffffffffffffffffffffffffffffffffffffff16815260200191505060405180910390f35b3480156101b457600080fd5b506101f7600480360360208110156101cb57600080fd5b81019080803573ffffffffffffffffffffffffffffffffffffffff1690602001909291905050506109c9565b005b34801561020557600080fd5b5061020e610b50565b6040518080602001828103825283818151815260200191508051906020019060200280838360005b83811015610251578082015181840152602081019050610236565b505050509050019250505060405180910390f35b34801561027157600080fd5b5061027a610bde565b604051808273ffffffffffffffffffffffffffffffffffffffff1673ffffffffffffffffffffffffffffffffffffffff16815260200191505060405180910390f35b3480156102c857600080fd5b506102d1610c03565b6040518082815260200191505060405180910390f35b3480156102f357600080fd5b506103406004803603604081101561030a57600080fd5b81019080803573ffffffffffffffffffffffffffffffffffffffff16906020019092919080359060200190929190505050610c13565b604051808273ffffffffffffffffffffffffffffffffffffffff1673ffffffffffffffffffffffffffffffffffffffff16815260200191505060405180910390f35b34801561038e57600080fd5b506103d1600480360360208110156103a557600080fd5b81019080803573ffffffffffffffffffffffffffffffffffffffff169060200190929190505050610c60565b005b3480156103df57600080fd5b50610422600480360360208110156103f657600080fd5b81019080803573ffffffffffffffffffffffffffffffffffffffff169060200190929190505050610f67565b005b34801561043057600080fd5b506104736004803603602081101561044757600080fd5b81019080803573ffffffffffffffffffffffffffffffffffffffff1690602001909291905050506111d6565b005b34801561048157600080fd5b506104c46004803603602081101561049857600080fd5b81019080803573ffffffffffffffffffffffffffffffffffffffff16906020019092919050505061142b565b005b3480156104d257600080fd5b506104ff600480360360208110156104e957600080fd5b81019080803590602001909291905050506115cd565b604051808273ffffffffffffffffffffffffffffffffffffffff1673ffffffffffffffffffffffffffffffffffffffff16815260200191505060405180910390f35b34801561054d57600080fd5b5061057a6004803603602081101561056457600080fd5b810190808035906020019092919050505061160b565b604051808273ffffffffffffffffffffffffffffffffffffffff1673ffffffffffffffffffffffffffffffffffffffff16815260200191505060405180910390f35b3480156105c857600080fd5b5061060b600480360360208110156105df57600080fd5b81019080803573ffffffffffffffffffffffffffffffffffffffff169060200190929190505050611649565b6040518082815260200191505060405180910390f35b34801561062d57600080fd5b50610636611661565b6040518080602001828103825283818151815260200191508051906020019060200280838360005b8381101561067957808201518184015260208101905061065e565b505050509050019250505060405180910390f35b34801561069957600080fd5b506106dc600480360360208110156106b057600080fd5b81019080803573ffffffffffffffffffffffffffffffffffffffff1690602001909291905050506116ef565b604051808273ffffffffffffffffffffffffffffffffffffffff1673ffffffffffffffffffffffffffffffffffffffff16815260200191505060405180910390f35b34801561072a57600080fd5b50610733611722565b6040518082815260200191505060405180910390f35b34801561075557600080fd5b5061075e611732565b6040518080602001828103825283818151815260200191508051906020019060200280838360005b838110156107a1578082015181840152602081019050610786565b505050509050019250505060405180910390f35b3480156107c157600080fd5b50610804600480360360208110156107d857600080fd5b81019080803573ffffffffffffffffffffffffffffffffffffffff1690602001909291905050506117c0565b6040518082815260200191505060405180910390f35b34801561082657600080fd5b506108536004803603602081101561083d57600080fd5b81019080803590602001909291905050506117d8565b005b34801561086157600080fd5b506108a46004803603602081101561087857600080fd5b81019080803573ffffffffffffffffffffffffffffffffffffffff169060200190929190505050611b37565b6040518082815260200191505060405180910390f35b3480156108c657600080fd5b50610909600480360360208110156108dd57600080fd5b81019080803573ffffffffffffffffffffffffffffffffffffffff169060200190929190505050611b4f565b6040518080602001828103825283818151815260200191508051906020019060200280838360005b8381101561094c578082015181840152602081019050610931565b505050509050019250505060405180910390f35b34801561096c57600080fd5b50610975611c1c565b6040518082815260200191505060405180910390f35b60078181548110151561099a57fe5b906000526020600020016000915054906101000a900473ffffffffffffffffffffffffffffffffffffffff1681565b6000809054906101000a900473ffffffffffffffffffffffffffffffffffffffff1673ffffffffffffffffffffffffffffffffffffffff163373ffffffffffffffffffffffffffffffffffffffff16141515610a8d576040517f08c379a000000000000000000000000000000000000000000000000000000000815260040180806020018281038252601f8152602001807f4f6e6c79206d616e616765722063616e2072656d6f76652061646d696e73210081525060200191505060405180910390fd5b600760018060008473ffffffffffffffffffffffffffffffffffffffff1673ffffffffffffffffffffffffffffffffffffffff1681526020019081526020016000205403815481101515610add57fe5b9060005260206000200160006101000a81549073ffffffffffffffffffffffffffffffffffffffff0219169055600160008273ffffffffffffffffffffffffffffffffffffffff1673ffffffffffffffffffffffffffffffffffffffff1681526020019081526020016000206000905550565b60606007805480602002602001604051908101604052809291908181526020018280548015610bd457602002820191906000526020600020905b8160009054906101000a900473ffffffffffffffffffffffffffffffffffffffff1673ffffffffffffffffffffffffffffffffffffffff1681526020019060010190808311610b8a575b5050505050905090565b6000809054906101000a900473ffffffffffffffffffffffffffffffffffffffff1681565b6000600160038054905001905090565b600660205281600052604060002081815481101515610c2e57fe5b906000526020600020016000915091509054906101000a900473ffffffffffffffffffffffffffffffffffffffff1681565b3373ffffffffffffffffffffffffffffffffffffffff16600460008373ffffffffffffffffffffffffffffffffffffffff1673ffffffffffffffffffffffffffffffffffffffff16815260200190815260200160002060009054906101000a900473ffffffffffffffffffffffffffffffffffffffff1673ffffffffffffffffffffffffffffffffffffffff16141515610d88576040517f08c379a000000000000000000000000000000000000000000000000000000000815260040180806020018281038252602e8152602001807f4f6e6c792073746f72656f776e6572732063616e2072656d6f7665207468656981526020017f722073746f726566726f6e74732100000000000000000000000000000000000081525060400191505060405180910390fd5b60008190508073ffffffffffffffffffffffffffffffffffffffff1663cbf0b0c0336040518263ffffffff167c0100000000000000000000000000000000000000000000000000000000028152600401808273ffffffffffffffffffffffffffffffffffffffff1673ffffffffffffffffffffffffffffffffffffffff168152602001915050600060405180830381600087803b158015610e2857600080fd5b505af1158015610e3c573d6000803e3d6000fd5b5050505060036001600560008573ffffffffffffffffffffffffffffffffffffffff1673ffffffffffffffffffffffffffffffffffffffff1681526020019081526020016000205403815481101515610e9157fe5b9060005260206000200160006101000a81549073ffffffffffffffffffffffffffffffffffffffff0219169055600560008373ffffffffffffffffffffffffffffffffffffffff1673ffffffffffffffffffffffffffffffffffffffff16815260200190815260200160002060009055600460008373ffffffffffffffffffffffffffffffffffffffff1673ffffffffffffffffffffffffffffffffffffffff16815260200190815260200160002060006101000a81549073ffffffffffffffffffffffffffffffffffffffff02191690555050565b6000600160003373ffffffffffffffffffffffffffffffffffffffff1673ffffffffffffffffffffffffffffffffffffffff1681526020019081526020016000205414151515611045576040517f08c379a00000000000000000000000000000000000000000000000000000000081526004018080602001828103825260248152602001807f4f6e6c792061646d696e732063616e20616464206e65772073746f72656f776e81526020017f657273210000000000000000000000000000000000000000000000000000000081525060400191505060405180910390fd5b6000600260008373ffffffffffffffffffffffffffffffffffffffff1673ffffffffffffffffffffffffffffffffffffffff16815260200190815260200160002054141515611122576040517f08c379a00000000000000000000000000000000000000000000000000000000081526004018080602001828103825260218152602001807f546869732061646d696e20697320616c7265616479207265676973746572656481526020017f210000000000000000000000000000000000000000000000000000000000000081525060400191505060405180910390fd5b61112a611722565b600260008373ffffffffffffffffffffffffffffffffffffffff1673ffffffffffffffffffffffffffffffffffffffff1681526020019081526020016000208190555060088190806001815401808255809150509060018203906000526020600020016000909192909190916101000a81548173ffffffffffffffffffffffffffffffffffffffff021916908373ffffffffffffffffffffffffffffffffffffffff1602179055505050565b6000809054906101000a900473ffffffffffffffffffffffffffffffffffffffff1673ffffffffffffffffffffffffffffffffffffffff163373ffffffffffffffffffffffffffffffffffffffff1614151561129a576040517f08c379a00000000000000000000000000000000000000000000000000000000081526004018080602001828103825260208152602001807f4f6e6c79206d616e616765722063616e20616464206e65772061646d696e732181525060200191505060405180910390fd5b6000600160008373ffffffffffffffffffffffffffffffffffffffff1673ffffffffffffffffffffffffffffffffffffffff16815260200190815260200160002054141515611377576040517f08c379a00000000000000000000000000000000000000000000000000000000081526004018080602001828103825260218152602001807f546869732061646d696e20697320616c7265616479207265676973746572656481526020017f210000000000000000000000000000000000000000000000000000000000000081525060400191505060405180910390fd5b61137f611c1c565b600160008373ffffffffffffffffffffffffffffffffffffffff1673ffffffffffffffffffffffffffffffffffffffff1681526020019081526020016000208190555060078190806001815401808255809150509060018203906000526020600020016000909192909190916101000a81548173ffffffffffffffffffffffffffffffffffffffff021916908373ffffffffffffffffffffffffffffffffffffffff1602179055505050565b6000600160003373ffffffffffffffffffffffffffffffffffffffff1673ffffffffffffffffffffffffffffffffffffffff1681526020019081526020016000205414151515611509576040517f08c379a00000000000000000000000000000000000000000000000000000000081526004018080602001828103825260238152602001807f4f6e6c792061646d696e732063616e2072656d6f76652073746f72656f776e6581526020017f727321000000000000000000000000000000000000000000000000000000000081525060400191505060405180910390fd5b60086001600260008473ffffffffffffffffffffffffffffffffffffffff1673ffffffffffffffffffffffffffffffffffffffff168152602001908152602001600020540381548110151561155a57fe5b9060005260206000200160006101000a81549073ffffffffffffffffffffffffffffffffffffffff0219169055600260008273ffffffffffffffffffffffffffffffffffffffff1673ffffffffffffffffffffffffffffffffffffffff1681526020019081526020016000206000905550565b6003818154811015156115dc57fe5b906000526020600020016000915054906101000a900473ffffffffffffffffffffffffffffffffffffffff1681565b60088181548110151561161a57fe5b906000526020600020016000915054906101000a900473ffffffffffffffffffffffffffffffffffffffff1681565b60026020528060005260406000206000915090505481565b606060088054806020026020016040519081016040528092919081815260200182805480156116e557602002820191906000526020600020905b8160009054906101000a900473ffffffffffffffffffffffffffffffffffffffff1673ffffffffffffffffffffffffffffffffffffffff168152602001906001019080831161169b575b5050505050905090565b60046020528060005260406000206000915054906101000a900473ffffffffffffffffffffffffffffffffffffffff1681565b6000600160088054905001905090565b606060038054806020026020016040519081016040528092919081815260200182805480156117b657602002820191906000526020600020905b8160009054906101000a900473ffffffffffffffffffffffffffffffffffffffff1673ffffffffffffffffffffffffffffffffffffffff168152602001906001019080831161176c575b5050505050905090565b60016020528060005260406000206000915090505481565b6000600260003373ffffffffffffffffffffffffffffffffffffffff1673ffffffffffffffffffffffffffffffffffffffff16815260200190815260200160002054141515156118b6576040517f08c379a00000000000000000000000000000000000000000000000000000000081526004018080602001828103825260378152602001807f4f6e6c7920726567697374657265642073746f72656f776e6572732063616e2081526020017f637265617465206e65772073746f726566726f6e74732100000000000000000081525060400191505060405180910390fd5b600081336118c2611c2c565b808381526020018273ffffffffffffffffffffffffffffffffffffffff1673ffffffffffffffffffffffffffffffffffffffff16815260200192505050604051809103906000f08015801561191b573d6000803e3d6000fd5b509050611926610c03565b600560008373ffffffffffffffffffffffffffffffffffffffff1673ffffffffffffffffffffffffffffffffffffffff1681526020019081526020016000208190555060038190806001815401808255809150509060018203906000526020600020016000909192909190916101000a81548173ffffffffffffffffffffffffffffffffffffffff021916908373ffffffffffffffffffffffffffffffffffffffff1602179055505033600460008373ffffffffffffffffffffffffffffffffffffffff1673ffffffffffffffffffffffffffffffffffffffff16815260200190815260200160002060006101000a81548173ffffffffffffffffffffffffffffffffffffffff021916908373ffffffffffffffffffffffffffffffffffffffff160217905550600660003373ffffffffffffffffffffffffffffffffffffffff1673ffffffffffffffffffffffffffffffffffffffff1681526020019081526020016000208190806001815401808255809150509060018203906000526020600020016000909192909190916101000a81548173ffffffffffffffffffffffffffffffffffffffff021916908373ffffffffffffffffffffffffffffffffffffffff160217905550508073ffffffffffffffffffffffffffffffffffffffff167fc39365e80b65656fc2da5913f11f6ae75b768c0cff41d22ea1e8d3e380cb6f2860405160405180910390a25050565b60056020528060005260406000206000915090505481565b6060600660008373ffffffffffffffffffffffffffffffffffffffff1673ffffffffffffffffffffffffffffffffffffffff168152602001908152602001600020805480602002602001604051908101604052809291908181526020018280548015611c1057602002820191906000526020600020905b8160009054906101000a900473ffffffffffffffffffffffffffffffffffffffff1673ffffffffffffffffffffffffffffffffffffffff1681526020019060010190808311611bc6575b50505050509050919050565b6000600160078054905001905090565b604051610fe780611c3d8339019056fe608060405234801561001057600080fd5b50604051604080610fe78339810180604052604081101561003057600080fd5b810190808051906020019092919080519060200190929190505050806000806101000a81548173ffffffffffffffffffffffffffffffffffffffff021916908373ffffffffffffffffffffffffffffffffffffffff160217905550816001819055505050610f44806100a36000396000f3fe6080604052600436106100c5576000357c0100000000000000000000000000000000000000000000000000000000900463ffffffff16806317a706ad146100ca57806324600fc31461010f5780634316af4714610126578063521936e61461018a57806352656a38146101b557806353b62866146102185780635ee95cae146102505780636813b53b1461028b578063712611dd146102ef57806371299e361461033e5780637acc0b20146103955780637ebc0a82146103f9578063cbf0b0c014610465575b600080fd5b3480156100d657600080fd5b5061010d600480360360408110156100ed57600080fd5b8101908080359060200190929190803590602001909291905050506104b6565b005b34801561011b57600080fd5b506101246105e7565b005b34801561013257600080fd5b5061015f6004803603602081101561014957600080fd5b8101908080359060200190929190505050610731565b6040518085815260200184815260200183815260200182815260200194505050505060405180910390f35b34801561019657600080fd5b5061019f610761565b6040518082815260200191505060405180910390f35b3480156101c157600080fd5b50610202600480360360608110156101d857600080fd5b81019080803590602001909291908035906020019092919080359060200190929190505050610767565b6040518082815260200191505060405180910390f35b61024e6004803603604081101561022e57600080fd5b810190808035906020019092919080359060200190929190505050610958565b005b34801561025c57600080fd5b506102896004803603602081101561027357600080fd5b8101908080359060200190929190505050610af9565b005b34801561029757600080fd5b506102c4600480360360208110156102ae57600080fd5b8101908080359060200190929190505050610c7f565b6040518085815260200184815260200183815260200182815260200194505050505060405180910390f35b3480156102fb57600080fd5b506103286004803603602081101561031257600080fd5b8101908080359060200190929190505050610cfa565b6040518082815260200191505060405180910390f35b34801561034a57600080fd5b50610353610d1d565b604051808273ffffffffffffffffffffffffffffffffffffffff1673ffffffffffffffffffffffffffffffffffffffff16815260200191505060405180910390f35b3480156103a157600080fd5b506103ce600480360360208110156103b857600080fd5b8101908080359060200190929190505050610d42565b6040518085815260200184815260200183815260200182815260200194505050505060405180910390f35b34801561040557600080fd5b5061040e610d81565b6040518080602001828103825283818151815260200191508051906020019060200280838360005b83811015610451578082015181840152602081019050610436565b505050509050019250505060405180910390f35b34801561047157600080fd5b506104b46004803603602081101561048857600080fd5b81019080803573ffffffffffffffffffffffffffffffffffffffff169060200190929190505050610dd9565b005b3373ffffffffffffffffffffffffffffffffffffffff166000809054906101000a900473ffffffffffffffffffffffffffffffffffffffff1673ffffffffffffffffffffffffffffffffffffffff161415156105a0576040517f08c379a00000000000000000000000000000000000000000000000000000000081526004018080602001828103825260238152602001807f4f6e6c792073746f72656f776e6572732063616e20656469742070726f64756381526020017f747321000000000000000000000000000000000000000000000000000000000081525060400191505060405180910390fd5b806002600184038154811015156105b357fe5b9060005260206000209060040201600201819055508060036000848152602001908152602001600020600201819055505050565b3373ffffffffffffffffffffffffffffffffffffffff166000809054906101000a900473ffffffffffffffffffffffffffffffffffffffff1673ffffffffffffffffffffffffffffffffffffffff161415156106d1576040517f08c379a00000000000000000000000000000000000000000000000000000000081526004018080602001828103825260238152602001807f4f6e6c792073746f72656f776e65722063616e2077697468647261772066756e81526020017f647321000000000000000000000000000000000000000000000000000000000081525060400191505060405180910390fd5b3373ffffffffffffffffffffffffffffffffffffffff166108fc3073ffffffffffffffffffffffffffffffffffffffff16319081150290604051600060405180830381858888f1935050505015801561072e573d6000803e3d6000fd5b50565b60036020528060005260406000206000915090508060000154908060010154908060020154908060030154905084565b60015481565b60003373ffffffffffffffffffffffffffffffffffffffff166000809054906101000a900473ffffffffffffffffffffffffffffffffffffffff1673ffffffffffffffffffffffffffffffffffffffff16141515610853576040517f08c379a00000000000000000000000000000000000000000000000000000000081526004018080602001828103825260268152602001807f4f6e6c792073746f72656f776e6572732063616e20616464206e65772070726f81526020017f647563747321000000000000000000000000000000000000000000000000000081525060400191505060405180910390fd5b61085b610edc565b9050610865610eec565b60806040519081016040528083815260200186815260200185815260200184815250905060028190806001815401808255809150509060018203906000526020600020906004020160009091929091909150600082015181600001556020820151816001015560408201518160020155606082015181600301555050508060036000848152602001908152602001600020600082015181600001556020820151816001015560408201518160020155606082015181600301559050506004829080600181540180825580915050906001820390600052602060002001600090919290919091505550819150509392505050565b34816003600085815260200190815260200160002060020154021415156109e7576040517f08c379a000000000000000000000000000000000000000000000000000000000815260040180806020018281038252601a8152602001807f53656e7420457468657273206973206e6f7420656e6f7567682100000000000081525060200191505060405180910390fd5b80600360008481526020019081526020016000206003015410151515610a75576040517f08c379a00000000000000000000000000000000000000000000000000000000081526004018080602001828103825260208152602001807f4e6f7420656e6f756768207069656365732061726520617661696c61626c652181525060200191505060405180910390fd5b80600260018403815481101515610a8857fe5b90600052602060002090600402016003015403600260018403815481101515610aad57fe5b9060005260206000209060040201600301819055508060036000848152602001908152602001600020600301540360036000848152602001908152602001600020600301819055505050565b3373ffffffffffffffffffffffffffffffffffffffff166000809054906101000a900473ffffffffffffffffffffffffffffffffffffffff1673ffffffffffffffffffffffffffffffffffffffff16141515610be3576040517f08c379a00000000000000000000000000000000000000000000000000000000081526004018080602001828103825260258152602001807f4f6e6c792073746f72656f776e6572732063616e2072656d6f76652070726f6481526020017f756374732100000000000000000000000000000000000000000000000000000081525060400191505060405180910390fd5b600260018203815481101515610bf557fe5b90600052602060002090600402016000808201600090556001820160009055600282016000905560038201600090555050600360008281526020019081526020016000206000808201600090556001820160009055600282016000905560038201600090555050600460018203815481101515610c6e57fe5b906000526020600020016000905550565b600080600080610c8d610eec565b6003600087815260200190815260200160002060806040519081016040529081600082015481526020016001820154815260200160028201548152602001600382015481525050905080600001518160200151826040015183606001519450945094509450509193509193565b600481815481101515610d0957fe5b906000526020600020016000915090505481565b6000809054906101000a900473ffffffffffffffffffffffffffffffffffffffff1681565b600281815481101515610d5157fe5b90600052602060002090600402016000915090508060000154908060010154908060020154908060030154905084565b60606004805480602002602001604051908101604052809291908181526020018280548015610dcf57602002820191906000526020600020905b815481526020019060010190808311610dbb575b5050505050905090565b8073ffffffffffffffffffffffffffffffffffffffff166000809054906101000a900473ffffffffffffffffffffffffffffffffffffffff1673ffffffffffffffffffffffffffffffffffffffff16141515610ec3576040517f08c379a000000000000000000000000000000000000000000000000000000000815260040180806020018281038252602e8152602001807f4f6e6c792073746f72656f776e6572732063616e2072656d6f7665207468656981526020017f722073746f726566726f6e74732100000000000000000000000000000000000081525060400191505060405180910390fd5b8073ffffffffffffffffffffffffffffffffffffffff16ff5b6000600160028054905001905090565b60806040519081016040528060008152602001600080191681526020016000815260200160008152509056fea165627a7a72305820d79938406f14fd81e6be9859eb8a2985c2caab6aa67c1a2a205284707840e3be0029a165627a7a723058202cadc28cd759a0c99d92b2152e9cac8a3402b8521465c8d8067212ec1fbe3d560029",
  "source": "pragma solidity ^0.5;\n\n\nimport \"./Storefront.sol\";\n\n\ncontract Marketplace {\n\n    address public manager;\n\n    mapping(address => uint256) public adminToId;\n    mapping(address => uint256) public storeownerToId;\n\n    /* events */\n    event storefrontCreated(Storefront indexed newStorefront);\n    \n    /* list of deployed storefronts contracts */\n    address[] public deployedStorefronts;\n\n    /* helpers */\n    mapping(address => address) public storeAddressToStoreowner;\n    mapping(address => uint256) public storeAddressToId;\n    mapping(address => address[]) public storeownerToStorefronts;\n    address[] public admins;\n    address[] public storeowners;\n\n\n    constructor() public {\n        manager = msg.sender;\n    }\n\n    /* manager functionalities */\n    function addAdmin(address _newAdmin) public {\n        require(msg.sender == manager, \"Only manager can add new admins!\");\n        require(adminToId[_newAdmin] == 0, \"This admin is already registered!\");\n\n        adminToId[_newAdmin] = getNewAdminId();\n        admins.push(_newAdmin);\n    }\n\n    function removeAdmin(address _currAdmin) public {\n        require(msg.sender == manager, \"Only manager can remove admins!\");\n\n        delete admins[adminToId[_currAdmin]-1];\n        delete adminToId[_currAdmin];\n    }\n\n    /* admins functionalities */\n    function addStoreowner(address _newStoreowner) public {\n        require(adminToId[msg.sender] != 0, \"Only admins can add new storeowners!\");\n        require(storeownerToId[_newStoreowner] == 0, \"This admin is already registered!\");\n\n        storeownerToId[_newStoreowner] = getNewStoreownerId();\n        storeowners.push(_newStoreowner);\n    }\n\n    function removeStoreowner(address _currStoreowner) public {\n        require(adminToId[msg.sender] != 0, \"Only admins can remove storeowners!\");\n\n        delete storeowners[storeownerToId[_currStoreowner]-1];\n        delete storeownerToId[_currStoreowner];\n    }\n\n    /* storeowners functionalities */\n    function createStorefront(bytes32 _storeName) public {\n        require(storeownerToId[msg.sender] != 0, \"Only registered storeowners can create new storefronts!\");\n\n        Storefront newStorefront = new Storefront(_storeName, msg.sender);\n\n        storeAddressToId[address(newStorefront)] = getNewStorefrontId();\n        deployedStorefronts.push(address(newStorefront));\n\n        storeAddressToStoreowner[address(newStorefront)] = msg.sender;\n        storeownerToStorefronts[msg.sender].push(address(newStorefront));\n\n        emit storefrontCreated(newStorefront);\n    }\n\n    function removeStorefront(address _storeAddress) public {\n        require(storeAddressToStoreowner[_storeAddress] == msg.sender, \"Only storeowners can remove their storefronts!\");\n\n        Storefront toBeDestructed = Storefront(_storeAddress);\n        \n        toBeDestructed.kill(msg.sender);\n        \n        delete deployedStorefronts[storeAddressToId[_storeAddress]-1];\n        delete storeAddressToId[_storeAddress];\n        delete storeAddressToStoreowner[_storeAddress];\n    }\n\n    /* helpers */\n    function getDeployedStorefronts() public view returns (address[] memory) {\n        return deployedStorefronts;\n    }\n\n    function getAdmins() public view returns (address[] memory) {\n        return admins;\n    }\n\n    function getStoreowners() public view returns (address[] memory) {\n        return storeowners;\n    }\n\n    function getNewAdminId() public view returns (uint256) {\n        /* Ids starts from 1 */\n        return admins.length + 1;\n    }\n\n    function getNewStoreownerId() public view returns (uint256) {\n        /* Ids starts from 1 */\n        return storeowners.length + 1;\n    }\n\n    function getNewStorefrontId() public view returns (uint256) {\n        /* Ids starts from 1 */\n        return deployedStorefronts.length + 1;\n    }\n\n    function getOwnerStorefronts(address _storeowner) public view returns (address[] memory) {\n        return storeownerToStorefronts[_storeowner];\n    }\n}",
  "sourcePath": "/home/f/ConsenSysDevProgram/eth-bootcamp-final-project/contracts/Marketplace.sol",
  "compiler": {
    "name": "solc",
    "version": "0.5.0+commit.1d4f565a.Emscripten.clang"
  },
  "schemaVersion": "3.0.0",
  "updatedAt": "2019-01-25T18:16:07.166Z",
  "devdoc": {
    "methods": {}
  },
  "userdoc": {
    "methods": {}
  }
}