{
  "contractName": "Marketplace",
  "abi": [
    {
      "constant": true,
      "inputs": [
        {
          "name": "",
          "type": "bytes32"
        }
      ],
      "name": "storeToOwner",
      "outputs": [
        {
          "name": "",
          "type": "address"
        }
      ],
      "payable": false,
      "stateMutability": "view",
      "type": "function",
      "signature": "0x0be1cf50"
    },
    {
      "constant": true,
      "inputs": [
        {
          "name": "",
          "type": "bytes32"
        },
        {
          "name": "",
          "type": "uint256"
        }
      ],
      "name": "storeToProductsIds",
      "outputs": [
        {
          "name": "",
          "type": "uint256"
        }
      ],
      "payable": false,
      "stateMutability": "view",
      "type": "function",
      "signature": "0x22c6deda"
    },
    {
      "constant": true,
      "inputs": [
        {
          "name": "",
          "type": "address"
        }
      ],
      "name": "isAdmin",
      "outputs": [
        {
          "name": "",
          "type": "bool"
        }
      ],
      "payable": false,
      "stateMutability": "view",
      "type": "function",
      "signature": "0x24d7806c"
    },
    {
      "constant": true,
      "inputs": [
        {
          "name": "",
          "type": "uint256"
        }
      ],
      "name": "storeFronts",
      "outputs": [
        {
          "name": "",
          "type": "bytes32"
        }
      ],
      "payable": false,
      "stateMutability": "view",
      "type": "function",
      "signature": "0x3191d401"
    },
    {
      "constant": true,
      "inputs": [
        {
          "name": "",
          "type": "bytes32"
        },
        {
          "name": "",
          "type": "uint256"
        }
      ],
      "name": "storeToProducts",
      "outputs": [
        {
          "name": "storeName",
          "type": "bytes32"
        },
        {
          "name": "id",
          "type": "uint256"
        },
        {
          "name": "name",
          "type": "bytes32"
        },
        {
          "name": "price",
          "type": "uint256"
        },
        {
          "name": "amount",
          "type": "uint256"
        }
      ],
      "payable": false,
      "stateMutability": "view",
      "type": "function",
      "signature": "0x3320efba"
    },
    {
      "constant": true,
      "inputs": [
        {
          "name": "",
          "type": "uint256"
        }
      ],
      "name": "idToProduct",
      "outputs": [
        {
          "name": "storeName",
          "type": "bytes32"
        },
        {
          "name": "id",
          "type": "uint256"
        },
        {
          "name": "name",
          "type": "bytes32"
        },
        {
          "name": "price",
          "type": "uint256"
        },
        {
          "name": "amount",
          "type": "uint256"
        }
      ],
      "payable": false,
      "stateMutability": "view",
      "type": "function",
      "signature": "0x4316af47"
    },
    {
      "constant": true,
      "inputs": [],
      "name": "manager",
      "outputs": [
        {
          "name": "",
          "type": "address"
        }
      ],
      "payable": false,
      "stateMutability": "view",
      "type": "function",
      "signature": "0x481c6a75"
    },
    {
      "constant": true,
      "inputs": [
        {
          "name": "",
          "type": "address"
        }
      ],
      "name": "isStoreOwner",
      "outputs": [
        {
          "name": "",
          "type": "bool"
        }
      ],
      "payable": false,
      "stateMutability": "view",
      "type": "function",
      "signature": "0x5effd33c"
    },
    {
      "inputs": [],
      "payable": false,
      "stateMutability": "nonpayable",
      "type": "constructor",
      "signature": "constructor"
    },
    {
      "anonymous": false,
      "inputs": [
        {
          "indexed": true,
          "name": "storeName",
          "type": "bytes32"
        },
        {
          "indexed": true,
          "name": "storeId",
          "type": "uint256"
        }
      ],
      "name": "storeCreated",
      "type": "event",
      "signature": "0x98fddc06b9cd3da3faabd01b677f6fd6492d705cb9296fee4e5cdae8735d86d9"
    },
    {
      "constant": false,
      "inputs": [
        {
          "name": "_newAdmin",
          "type": "address"
        }
      ],
      "name": "addAdmin",
      "outputs": [],
      "payable": false,
      "stateMutability": "nonpayable",
      "type": "function",
      "signature": "0x70480275"
    },
    {
      "constant": false,
      "inputs": [
        {
          "name": "_currAdmin",
          "type": "address"
        }
      ],
      "name": "removeAdmin",
      "outputs": [],
      "payable": false,
      "stateMutability": "nonpayable",
      "type": "function",
      "signature": "0x1785f53c"
    },
    {
      "constant": false,
      "inputs": [
        {
          "name": "_newStoreOwner",
          "type": "address"
        }
      ],
      "name": "addStoreOwner",
      "outputs": [],
      "payable": false,
      "stateMutability": "nonpayable",
      "type": "function",
      "signature": "0x9adeb5f1"
    },
    {
      "constant": false,
      "inputs": [
        {
          "name": "_currStoreOwner",
          "type": "address"
        }
      ],
      "name": "removeStoreOwner",
      "outputs": [],
      "payable": false,
      "stateMutability": "nonpayable",
      "type": "function",
      "signature": "0x6174fdd1"
    },
    {
      "constant": false,
      "inputs": [
        {
          "name": "_storeName",
          "type": "bytes32"
        }
      ],
      "name": "createStoreFront",
      "outputs": [],
      "payable": false,
      "stateMutability": "nonpayable",
      "type": "function",
      "signature": "0xa050200f"
    },
    {
      "constant": false,
      "inputs": [
        {
          "name": "_storeName",
          "type": "bytes32"
        }
      ],
      "name": "removeStoreFront",
      "outputs": [],
      "payable": false,
      "stateMutability": "nonpayable",
      "type": "function",
      "signature": "0xee7bb13d"
    },
    {
      "constant": false,
      "inputs": [
        {
          "name": "_storeName",
          "type": "bytes32"
        },
        {
          "name": "_prName",
          "type": "bytes32"
        },
        {
          "name": "_prPrice",
          "type": "uint256"
        },
        {
          "name": "_prAmount",
          "type": "uint256"
        }
      ],
      "name": "addProduct",
      "outputs": [
        {
          "name": "prId",
          "type": "uint256"
        }
      ],
      "payable": false,
      "stateMutability": "nonpayable",
      "type": "function",
      "signature": "0x23213f1d"
    },
    {
      "constant": false,
      "inputs": [
        {
          "name": "_storeName",
          "type": "bytes32"
        },
        {
          "name": "_prId",
          "type": "uint256"
        }
      ],
      "name": "removeProduct",
      "outputs": [],
      "payable": false,
      "stateMutability": "nonpayable",
      "type": "function",
      "signature": "0xc8687621"
    },
    {
      "constant": false,
      "inputs": [
        {
          "name": "_storeName",
          "type": "bytes32"
        },
        {
          "name": "_prId",
          "type": "uint256"
        }
      ],
      "name": "buyProduct",
      "outputs": [],
      "payable": true,
      "stateMutability": "payable",
      "type": "function",
      "signature": "0x9743f771"
    },
    {
      "constant": true,
      "inputs": [],
      "name": "getNewStoreId",
      "outputs": [
        {
          "name": "",
          "type": "uint256"
        }
      ],
      "payable": false,
      "stateMutability": "view",
      "type": "function",
      "signature": "0x911a3e32"
    },
    {
      "constant": true,
      "inputs": [],
      "name": "getStoreFronts",
      "outputs": [
        {
          "name": "",
          "type": "bytes32[]"
        }
      ],
      "payable": false,
      "stateMutability": "view",
      "type": "function",
      "signature": "0x5127db91"
    },
    {
      "constant": true,
      "inputs": [
        {
          "name": "_storeName",
          "type": "bytes32"
        }
      ],
      "name": "getProductsIdsInStore",
      "outputs": [
        {
          "name": "",
          "type": "uint256[]"
        }
      ],
      "payable": false,
      "stateMutability": "view",
      "type": "function",
      "signature": "0x6f2012a2"
    },
    {
      "constant": true,
      "inputs": [
        {
          "name": "_prId",
          "type": "uint256"
        }
      ],
      "name": "getProductDetails",
      "outputs": [
        {
          "name": "",
          "type": "bytes32"
        },
        {
          "name": "",
          "type": "uint256"
        },
        {
          "name": "",
          "type": "bytes32"
        },
        {
          "name": "",
          "type": "uint256"
        },
        {
          "name": "",
          "type": "uint256"
        }
      ],
      "payable": false,
      "stateMutability": "view",
      "type": "function",
      "signature": "0x6813b53b"
    }
  ],
  "bytecode": "0x608060405234801561001057600080fd5b50336000806101000a81548173ffffffffffffffffffffffffffffffffffffffff021916908373ffffffffffffffffffffffffffffffffffffffff160217905550611ae9806100606000396000f3fe60806040526004361061011d576000357c0100000000000000000000000000000000000000000000000000000000900463ffffffff1680630be1cf50146101225780631785f53c1461019d57806322c6deda146101ee57806323213f1d1461024757806324d7806c146102b45780633191d4011461031d5780633320efba1461036c5780634316af47146103e1578063481c6a751461044c5780635127db91146104a35780635effd33c1461050f5780636174fdd1146105785780636813b53b146105c95780636f2012a21461063457806370480275146106c4578063911a3e32146107155780639743f771146107405780639adeb5f114610778578063a050200f146107c9578063c868762114610804578063ee7bb13d14610849575b600080fd5b34801561012e57600080fd5b5061015b6004803603602081101561014557600080fd5b8101908080359060200190929190505050610884565b604051808273ffffffffffffffffffffffffffffffffffffffff1673ffffffffffffffffffffffffffffffffffffffff16815260200191505060405180910390f35b3480156101a957600080fd5b506101ec600480360360208110156101c057600080fd5b81019080803573ffffffffffffffffffffffffffffffffffffffff1690602001909291905050506108b7565b005b3480156101fa57600080fd5b506102316004803603604081101561021157600080fd5b8101908080359060200190929190803590602001909291905050506109d6565b6040518082815260200191505060405180910390f35b34801561025357600080fd5b5061029e6004803603608081101561026a57600080fd5b8101908080359060200190929190803590602001909291908035906020019092919080359060200190929190505050610a06565b6040518082815260200191505060405180910390f35b3480156102c057600080fd5b50610303600480360360208110156102d757600080fd5b81019080803573ffffffffffffffffffffffffffffffffffffffff169060200190929190505050610c2d565b604051808215151515815260200191505060405180910390f35b34801561032957600080fd5b506103566004803603602081101561034057600080fd5b8101908080359060200190929190505050610c4d565b6040518082815260200191505060405180910390f35b34801561037857600080fd5b506103af6004803603604081101561038f57600080fd5b810190808035906020019092919080359060200190929190505050610c70565b604051808681526020018581526020018481526020018381526020018281526020019550505050505060405180910390f35b3480156103ed57600080fd5b5061041a6004803603602081101561040457600080fd5b8101908080359060200190929190505050610cb3565b604051808681526020018581526020018481526020018381526020018281526020019550505050505060405180910390f35b34801561045857600080fd5b50610461610ce9565b604051808273ffffffffffffffffffffffffffffffffffffffff1673ffffffffffffffffffffffffffffffffffffffff16815260200191505060405180910390f35b3480156104af57600080fd5b506104b8610d0e565b6040518080602001828103825283818151815260200191508051906020019060200280838360005b838110156104fb5780820151818401526020810190506104e0565b505050509050019250505060405180910390f35b34801561051b57600080fd5b5061055e6004803603602081101561053257600080fd5b81019080803573ffffffffffffffffffffffffffffffffffffffff169060200190929190505050610d66565b604051808215151515815260200191505060405180910390f35b34801561058457600080fd5b506105c76004803603602081101561059b57600080fd5b81019080803573ffffffffffffffffffffffffffffffffffffffff169060200190929190505050610d86565b005b3480156105d557600080fd5b50610602600480360360208110156105ec57600080fd5b8101908080359060200190929190505050610ec8565b604051808681526020018581526020018481526020018381526020018281526020019550505050505060405180910390f35b34801561064057600080fd5b5061066d6004803603602081101561065757600080fd5b8101908080359060200190929190505050610f58565b6040518080602001828103825283818151815260200191508051906020019060200280838360005b838110156106b0578082015181840152602081019050610695565b505050509050019250505060405180910390f35b3480156106d057600080fd5b50610713600480360360208110156106e757600080fd5b81019080803573ffffffffffffffffffffffffffffffffffffffff169060200190929190505050610fc3565b005b34801561072157600080fd5b5061072a6110e1565b6040518082815260200191505060405180910390f35b6107766004803603604081101561075657600080fd5b8101908080359060200190929190803590602001909291905050506110f1565b005b34801561078457600080fd5b506107c76004803603602081101561079b57600080fd5b81019080803573ffffffffffffffffffffffffffffffffffffffff1690602001909291905050506114a7565b005b3480156107d557600080fd5b50610802600480360360208110156107ec57600080fd5b81019080803590602001909291905050506115e9565b005b34801561081057600080fd5b506108476004803603604081101561082757600080fd5b810190808035906020019092919080359060200190929190505050611786565b005b34801561085557600080fd5b506108826004803603602081101561086c57600080fd5b8101908080359060200190929190505050611944565b005b60036020528060005260406000206000915054906101000a900473ffffffffffffffffffffffffffffffffffffffff1681565b6000809054906101000a900473ffffffffffffffffffffffffffffffffffffffff1673ffffffffffffffffffffffffffffffffffffffff163373ffffffffffffffffffffffffffffffffffffffff1614151561097b576040517f08c379a000000000000000000000000000000000000000000000000000000000815260040180806020018281038252601f8152602001807f4f6e6c79206d616e616765722063616e2072656d6f76652061646d696e73210081525060200191505060405180910390fd5b6000600160008373ffffffffffffffffffffffffffffffffffffffff1673ffffffffffffffffffffffffffffffffffffffff16815260200190815260200160002060006101000a81548160ff02191690831515021790555050565b6005602052816000526040600020818154811015156109f157fe5b90600052602060002001600091509150505481565b60003373ffffffffffffffffffffffffffffffffffffffff166003600087815260200190815260200160002060009054906101000a900473ffffffffffffffffffffffffffffffffffffffff1673ffffffffffffffffffffffffffffffffffffffff16141515610b04576040517f08c379a00000000000000000000000000000000000000000000000000000000081526004018080602001828103825260278152602001807f4f6e6c792073746f7265206f776e6572732063616e20616464206e657720707281526020017f6f6475637473210000000000000000000000000000000000000000000000000081525060400191505060405180910390fd5b610b0d85611a64565b9050610b17611a87565b60a060405190810160405280878152602001838152602001868152602001858152602001848152509050806004600088815260200190815260200160002060008481526020019081526020016000206000820151816000015560208201518160010155604082015181600201556060820151816003015560808201518160040155905050806006600084815260200190815260200160002060008201518160000155602082015181600101556040820151816002015560608201518160030155608082015181600401559050506005600087815260200190815260200160002082908060018154018082558091505090600182039060005260206000200160009091929091909150555081915050949350505050565b60016020528060005260406000206000915054906101000a900460ff1681565b600781815481101515610c5c57fe5b906000526020600020016000915090505481565b6004602052816000526040600020602052806000526040600020600091509150508060000154908060010154908060020154908060030154908060040154905085565b60066020528060005260406000206000915090508060000154908060010154908060020154908060030154908060040154905085565b6000809054906101000a900473ffffffffffffffffffffffffffffffffffffffff1681565b60606007805480602002602001604051908101604052809291908181526020018280548015610d5c57602002820191906000526020600020905b815481526020019060010190808311610d48575b5050505050905090565b60026020528060005260406000206000915054906101000a900460ff1681565b600160003373ffffffffffffffffffffffffffffffffffffffff1673ffffffffffffffffffffffffffffffffffffffff16815260200190815260200160002060009054906101000a900460ff161515610e6d576040517f08c379a00000000000000000000000000000000000000000000000000000000081526004018080602001828103825260248152602001807f4f6e6c792061646d696e732063616e2072656d6f76652073746f7265206f776e81526020017f657273210000000000000000000000000000000000000000000000000000000081525060400191505060405180910390fd5b6000600260008373ffffffffffffffffffffffffffffffffffffffff1673ffffffffffffffffffffffffffffffffffffffff16815260200190815260200160002060006101000a81548160ff02191690831515021790555050565b6000806000806000610ed8611a87565b6006600088815260200190815260200160002060a0604051908101604052908160008201548152602001600182015481526020016002820154815260200160038201548152602001600482015481525050905080600001518160200151826040015183606001518460800151955095509550955095505091939590929450565b606060056000838152602001908152602001600020805480602002602001604051908101604052809291908181526020018280548015610fb757602002820191906000526020600020905b815481526020019060010190808311610fa3575b50505050509050919050565b6000809054906101000a900473ffffffffffffffffffffffffffffffffffffffff1673ffffffffffffffffffffffffffffffffffffffff163373ffffffffffffffffffffffffffffffffffffffff16141515611087576040517f08c379a00000000000000000000000000000000000000000000000000000000081526004018080602001828103825260208152602001807f4f6e6c79206d616e616765722063616e20616464206e65772061646d696e732181525060200191505060405180910390fd5b60018060008373ffffffffffffffffffffffffffffffffffffffff1673ffffffffffffffffffffffffffffffffffffffff16815260200190815260200160002060006101000a81548160ff02191690831515021790555050565b6000600160078054905001905090565b600073ffffffffffffffffffffffffffffffffffffffff166003600084815260200190815260200160002060009054906101000a900473ffffffffffffffffffffffffffffffffffffffff1673ffffffffffffffffffffffffffffffffffffffff16141515156111c9576040517f08c379a00000000000000000000000000000000000000000000000000000000081526004018080602001828103825260158152602001807f53746f726520646f6573206e6f7420657869737421000000000000000000000081525060200191505060405180910390fd5b6004600083815260200190815260200160002060008281526020019081526020016000206003015434141515611267576040517f08c379a000000000000000000000000000000000000000000000000000000000815260040180806020018281038252601a8152602001807f53656e7420457468657273206973206e6f7420656e6f7567682100000000000081525060200191505060405180910390fd5b600460008381526020019081526020016000206000828152602001908152602001600020600001548214151561132b576040517f08c379a00000000000000000000000000000000000000000000000000000000081526004018080602001828103825260268152602001807f52657175697265642070726f64756374206973206e6f7420696e20746869732081526020017f73746f726521000000000000000000000000000000000000000000000000000081525060400191505060405180910390fd5b6000600460008481526020019081526020016000206000838152602001908152602001600020600401541115156113ca576040517f08c379a000000000000000000000000000000000000000000000000000000000815260040180806020018281038252601b8152602001807f4e6f206d6f72652070726f647563747320617661696c61626c6521000000000081525060200191505060405180910390fd5b6003600083815260200190815260200160002060009054906101000a900473ffffffffffffffffffffffffffffffffffffffff1673ffffffffffffffffffffffffffffffffffffffff166108fc349081150290604051600060405180830381858888f19350505050158015611443573d6000803e3d6000fd5b5060046000838152602001908152602001600020600082815260200190815260200160002060040160008154809291906001900391905055506006600082815260200190815260200160002060040160008154809291906001900391905055505050565b600160003373ffffffffffffffffffffffffffffffffffffffff1673ffffffffffffffffffffffffffffffffffffffff16815260200190815260200160002060009054906101000a900460ff16151561158e576040517f08c379a00000000000000000000000000000000000000000000000000000000081526004018080602001828103825260258152602001807f4f6e6c792061646d696e732063616e20616464206e65772073746f7265206f7781526020017f6e6572732100000000000000000000000000000000000000000000000000000081525060400191505060405180910390fd5b6001600260008373ffffffffffffffffffffffffffffffffffffffff1673ffffffffffffffffffffffffffffffffffffffff16815260200190815260200160002060006101000a81548160ff02191690831515021790555050565b600260003373ffffffffffffffffffffffffffffffffffffffff1673ffffffffffffffffffffffffffffffffffffffff16815260200190815260200160002060009054906101000a900460ff1615156116d0576040517f08c379a00000000000000000000000000000000000000000000000000000000081526004018080602001828103825260398152602001807f4f6e6c7920726567697374657265642073746f7265206f776e6572732063616e81526020017f20637265617465206e65772073746f72652066726f6e7473210000000000000081525060400191505060405180910390fd5b336003600083815260200190815260200160002060006101000a81548173ffffffffffffffffffffffffffffffffffffffff021916908373ffffffffffffffffffffffffffffffffffffffff16021790555060078190806001815401808255809150509060018203906000526020600020016000909192909190915055506117566110e1565b817f98fddc06b9cd3da3faabd01b677f6fd6492d705cb9296fee4e5cdae8735d86d960405160405180910390a350565b3373ffffffffffffffffffffffffffffffffffffffff166003600084815260200190815260200160002060009054906101000a900473ffffffffffffffffffffffffffffffffffffffff1673ffffffffffffffffffffffffffffffffffffffff16141515611882576040517f08c379a00000000000000000000000000000000000000000000000000000000081526004018080602001828103825260278152602001807f4f6e6c792073746f7265206f776e6572732063616e20616464206e657720707281526020017f6f6475637473210000000000000000000000000000000000000000000000000081525060400191505060405180910390fd5b600460008381526020019081526020016000206000828152602001908152602001600020600080820160009055600182016000905560028201600090556003820160009055600482016000905550506006600082815260200190815260200160002060008082016000905560018201600090556002820160009055600382016000905560048201600090555050600560008381526020019081526020016000206001820381548110151561193257fe5b90600052602060002001600090555050565b600260003373ffffffffffffffffffffffffffffffffffffffff1673ffffffffffffffffffffffffffffffffffffffff16815260200190815260200160002060009054906101000a900460ff161515611a2b576040517f08c379a00000000000000000000000000000000000000000000000000000000081526004018080602001828103825260308152602001807f4f6e6c792073746f7265206f776e6572732063616e2072656d6f76652074686581526020017f69722073746f72652066726f6e7473210000000000000000000000000000000081525060400191505060405180910390fd5b6003600082815260200190815260200160002060006101000a81549073ffffffffffffffffffffffffffffffffffffffff021916905550565b600060016005600084815260200190815260200160002080549050019050919050565b60a0604051908101604052806000801916815260200160008152602001600080191681526020016000815260200160008152509056fea165627a7a723058203fef4323f62a7c200d23070af3234d28a8ec6691cb695d763fa11ae434c25e0c0029",
  "source": "pragma solidity ^0.5;\n\n\ncontract Marketplace {\n\n    struct Product {\n        bytes32 storeName;\n        uint256 id;\n        bytes32 name;\n        uint256 price;\n        uint256 amount;\n    }\n\n    address public manager;\n\n    mapping(address => bool) public isAdmin;\n    mapping(address => bool) public isStoreOwner;\n\n    /* maps a store to its owner */\n    mapping(bytes32 => address payable) public storeToOwner;\n\n    /* maps stores and products */\n    mapping(bytes32 => mapping(uint256 => Product)) public storeToProducts;\n\n    /* events */\n    event storeCreated(bytes32 indexed storeName, uint256 indexed storeId);\n\n    /* helpers */\n    mapping(bytes32 => uint256[]) public storeToProductsIds;\n    mapping(uint256 => Product) public idToProduct;\n    bytes32[] public storeFronts;\n\n\n    constructor() public {\n        manager = msg.sender;\n    }\n\n    /* managers functionalities */\n    function addAdmin(address _newAdmin) public {\n        require(msg.sender == manager, \"Only manager can add new admins!\");\n        isAdmin[_newAdmin] = true;\n    }\n\n    function removeAdmin(address _currAdmin) public {\n        require(msg.sender == manager, \"Only manager can remove admins!\");\n        isAdmin[_currAdmin] = false;\n    }\n\n    /* admins functionalities */\n    function addStoreOwner(address _newStoreOwner) public {\n        require(isAdmin[msg.sender], \"Only admins can add new store owners!\");\n        isStoreOwner[_newStoreOwner] = true;\n    }\n\n    function removeStoreOwner(address _currStoreOwner) public {\n        require(isAdmin[msg.sender], \"Only admins can remove store owners!\");\n        isStoreOwner[_currStoreOwner] = false;\n    }\n\n    /* storeowners functionalities */\n    function createStoreFront(bytes32 _storeName) public {\n        require(isStoreOwner[msg.sender], \"Only registered store owners can create new store fronts!\");\n        \n        storeToOwner[_storeName] = msg.sender;\n        storeFronts.push(_storeName);\n\n        emit storeCreated(_storeName, getNewStoreId());\n    }\n\n    function removeStoreFront(bytes32 _storeName) public {\n        require(isStoreOwner[msg.sender], \"Only store owners can remove their store fronts!\");\n        delete storeToOwner[_storeName];\n    }\n\n    function addProduct(\n        bytes32 _storeName, \n        bytes32 _prName, \n        uint256 _prPrice, \n        uint256 _prAmount) \n        public returns (uint256 prId) \n    {\n        require(storeToOwner[_storeName] == msg.sender, \"Only store owners can add new products!\");\n\n        prId = getNewProductId(_storeName);\n\n        Product memory product = Product(_storeName, prId, _prName, _prPrice, _prAmount);\n\n        /* add product to store */\n        storeToProducts[_storeName][prId] = product;\n\n        /* update helpers */\n        idToProduct[prId] = product;\n        storeToProductsIds[_storeName].push(prId);\n\n        return prId;\n    }\n\n    function removeProduct(bytes32 _storeName, uint256 _prId) public {\n        require(storeToOwner[_storeName] == msg.sender, \"Only store owners can add new products!\");\n\n        delete storeToProducts[_storeName][_prId];\n        \n        /* update helpers */\n        delete idToProduct[_prId];\n        delete storeToProductsIds[_storeName][_prId-1];\n    }\n\n    function buyProduct(bytes32 _storeName, uint256 _prId) public payable {\n        require(storeToOwner[_storeName] != address(0), \"Store does not exist!\");\n        require(msg.value == storeToProducts[_storeName][_prId].price, \"Sent Ethers is not enough!\");\n        /* @@@ improve on this @@@ */\n        require(_storeName == storeToProducts[_storeName][_prId].storeName, \"Required product is not in this store!\");\n        require(storeToProducts[_storeName][_prId].amount > 0, \"No more products available!\");\n\n        storeToOwner[_storeName].transfer(msg.value);\n        storeToProducts[_storeName][_prId].amount--;\n        idToProduct[_prId].amount--;\n    }\n\n    /* helpers */\n    function getNewProductId(bytes32 _storeName) private view returns (uint256) {\n        /* IDs starts from 1 */\n        return storeToProductsIds[_storeName].length + 1;\n    }\n\n    function getNewStoreId() public view returns (uint256) {\n        /* IDs starts from 1 */\n        return storeFronts.length + 1;\n    }\n\n    function getStoreFronts() public view returns (bytes32[] memory) {\n        return storeFronts;\n    }\n\n    function getProductsIdsInStore(bytes32 _storeName) public view returns (uint256[] memory) {\n        return storeToProductsIds[_storeName];\n    }\n\n    function getProductDetails(uint256 _prId) public view returns (bytes32, uint256, bytes32, uint256, uint256) {\n        Product memory product = idToProduct[_prId];\n        return (product.storeName, product.id, product.name, product.price, product.amount);\n    }\n}",
  "sourcePath": "/home/f/ConsenSysDevProgram/dev-bootcamp-final-project/contracts/Marketplace.sol",
  "compiler": {
    "name": "solc",
    "version": "0.5.0+commit.1d4f565a.Emscripten.clang"
  },
  "schemaVersion": "3.0.0",
  "updatedAt": "2019-01-23T13:48:31.274Z",
  "devdoc": {
    "methods": {}
  },
  "userdoc": {
    "methods": {}
  }
}