{
  "contractName": "Marketplace",
  "abi": [
    {
      "constant": true,
      "inputs": [
        {
          "name": "",
          "type": "uint256"
        }
      ],
      "name": "admins",
      "outputs": [
        {
          "name": "",
          "type": "address"
        }
      ],
      "payable": false,
      "stateMutability": "view",
      "type": "function",
      "signature": "0x14bfd6d0"
    },
    {
      "constant": true,
      "inputs": [],
      "name": "manager",
      "outputs": [
        {
          "name": "",
          "type": "address"
        }
      ],
      "payable": false,
      "stateMutability": "view",
      "type": "function",
      "signature": "0x481c6a75"
    },
    {
      "constant": true,
      "inputs": [
        {
          "name": "",
          "type": "address"
        },
        {
          "name": "",
          "type": "uint256"
        }
      ],
      "name": "storeownerToStorefronts",
      "outputs": [
        {
          "name": "",
          "type": "address"
        }
      ],
      "payable": false,
      "stateMutability": "view",
      "type": "function",
      "signature": "0x5b21b106"
    },
    {
      "constant": true,
      "inputs": [
        {
          "name": "",
          "type": "uint256"
        }
      ],
      "name": "deployedStorefronts",
      "outputs": [
        {
          "name": "",
          "type": "address"
        }
      ],
      "payable": false,
      "stateMutability": "view",
      "type": "function",
      "signature": "0x8521acf9"
    },
    {
      "constant": true,
      "inputs": [
        {
          "name": "",
          "type": "uint256"
        }
      ],
      "name": "storeowners",
      "outputs": [
        {
          "name": "",
          "type": "address"
        }
      ],
      "payable": false,
      "stateMutability": "view",
      "type": "function",
      "signature": "0x8a610565"
    },
    {
      "constant": true,
      "inputs": [
        {
          "name": "",
          "type": "address"
        }
      ],
      "name": "storeownerToId",
      "outputs": [
        {
          "name": "",
          "type": "uint256"
        }
      ],
      "payable": false,
      "stateMutability": "view",
      "type": "function",
      "signature": "0xa3c0f451"
    },
    {
      "constant": true,
      "inputs": [
        {
          "name": "",
          "type": "address"
        }
      ],
      "name": "storeAddressToStoreowner",
      "outputs": [
        {
          "name": "",
          "type": "address"
        }
      ],
      "payable": false,
      "stateMutability": "view",
      "type": "function",
      "signature": "0xbf81e259"
    },
    {
      "constant": true,
      "inputs": [
        {
          "name": "",
          "type": "address"
        }
      ],
      "name": "adminToId",
      "outputs": [
        {
          "name": "",
          "type": "uint256"
        }
      ],
      "payable": false,
      "stateMutability": "view",
      "type": "function",
      "signature": "0xd7fd9e90"
    },
    {
      "constant": true,
      "inputs": [
        {
          "name": "",
          "type": "address"
        }
      ],
      "name": "storeAddressToId",
      "outputs": [
        {
          "name": "",
          "type": "uint256"
        }
      ],
      "payable": false,
      "stateMutability": "view",
      "type": "function",
      "signature": "0xe6e2d3d3"
    },
    {
      "inputs": [],
      "payable": false,
      "stateMutability": "nonpayable",
      "type": "constructor",
      "signature": "constructor"
    },
    {
      "anonymous": false,
      "inputs": [
        {
          "indexed": true,
          "name": "newStorefront",
          "type": "address"
        }
      ],
      "name": "storefrontCreated",
      "type": "event",
      "signature": "0xc39365e80b65656fc2da5913f11f6ae75b768c0cff41d22ea1e8d3e380cb6f28"
    },
    {
      "constant": false,
      "inputs": [
        {
          "name": "_newAdmin",
          "type": "address"
        }
      ],
      "name": "addAdmin",
      "outputs": [],
      "payable": false,
      "stateMutability": "nonpayable",
      "type": "function",
      "signature": "0x70480275"
    },
    {
      "constant": false,
      "inputs": [
        {
          "name": "_currAdmin",
          "type": "address"
        }
      ],
      "name": "removeAdmin",
      "outputs": [],
      "payable": false,
      "stateMutability": "nonpayable",
      "type": "function",
      "signature": "0x1785f53c"
    },
    {
      "constant": false,
      "inputs": [
        {
          "name": "_newStoreowner",
          "type": "address"
        }
      ],
      "name": "addStoreowner",
      "outputs": [],
      "payable": false,
      "stateMutability": "nonpayable",
      "type": "function",
      "signature": "0x6ce5c206"
    },
    {
      "constant": false,
      "inputs": [
        {
          "name": "_currStoreowner",
          "type": "address"
        }
      ],
      "name": "removeStoreowner",
      "outputs": [],
      "payable": false,
      "stateMutability": "nonpayable",
      "type": "function",
      "signature": "0x7ccbcc0b"
    },
    {
      "constant": false,
      "inputs": [
        {
          "name": "_storeName",
          "type": "bytes32"
        }
      ],
      "name": "createStorefront",
      "outputs": [],
      "payable": false,
      "stateMutability": "nonpayable",
      "type": "function",
      "signature": "0xe0605cf8"
    },
    {
      "constant": false,
      "inputs": [
        {
          "name": "_storeAddress",
          "type": "address"
        }
      ],
      "name": "removeStorefront",
      "outputs": [],
      "payable": false,
      "stateMutability": "nonpayable",
      "type": "function",
      "signature": "0x64469e88"
    },
    {
      "constant": true,
      "inputs": [],
      "name": "getDeployedStorefronts",
      "outputs": [
        {
          "name": "",
          "type": "address[]"
        }
      ],
      "payable": false,
      "stateMutability": "view",
      "type": "function",
      "signature": "0xca1d1ff3"
    },
    {
      "constant": true,
      "inputs": [],
      "name": "getAdmins",
      "outputs": [
        {
          "name": "",
          "type": "address[]"
        }
      ],
      "payable": false,
      "stateMutability": "view",
      "type": "function",
      "signature": "0x31ae450b"
    },
    {
      "constant": true,
      "inputs": [],
      "name": "getStoreowners",
      "outputs": [
        {
          "name": "",
          "type": "address[]"
        }
      ],
      "payable": false,
      "stateMutability": "view",
      "type": "function",
      "signature": "0xa418fdc9"
    },
    {
      "constant": true,
      "inputs": [],
      "name": "getNewAdminId",
      "outputs": [
        {
          "name": "",
          "type": "uint256"
        }
      ],
      "payable": false,
      "stateMutability": "view",
      "type": "function",
      "signature": "0xf8b71a05"
    },
    {
      "constant": true,
      "inputs": [],
      "name": "getNewStoreownerId",
      "outputs": [
        {
          "name": "",
          "type": "uint256"
        }
      ],
      "payable": false,
      "stateMutability": "view",
      "type": "function",
      "signature": "0xc92bdc4e"
    },
    {
      "constant": true,
      "inputs": [],
      "name": "getNewStorefrontId",
      "outputs": [
        {
          "name": "",
          "type": "uint256"
        }
      ],
      "payable": false,
      "stateMutability": "view",
      "type": "function",
      "signature": "0x4bbf8048"
    },
    {
      "constant": true,
      "inputs": [
        {
          "name": "_storeowner",
          "type": "address"
        }
      ],
      "name": "getOwnerStorefronts",
      "outputs": [
        {
          "name": "",
          "type": "address[]"
        }
      ],
      "payable": false,
      "stateMutability": "view",
      "type": "function",
      "signature": "0xe7c5d7f9"
    }
  ],
  "bytecode": "0x608060405234801561001057600080fd5b50336000806101000a81548173ffffffffffffffffffffffffffffffffffffffff021916908373ffffffffffffffffffffffffffffffffffffffff160217905550612f89806100606000396000f3fe608060405260043610610128576000357c0100000000000000000000000000000000000000000000000000000000900463ffffffff16806314bfd6d01461012d5780631785f53c146101a857806331ae450b146101f9578063481c6a75146102655780634bbf8048146102bc5780635b21b106146102e757806364469e88146103825780636ce5c206146103d357806370480275146104245780637ccbcc0b146104755780638521acf9146104c65780638a61056514610541578063a3c0f451146105bc578063a418fdc914610621578063bf81e2591461068d578063c92bdc4e1461071e578063ca1d1ff314610749578063d7fd9e90146107b5578063e0605cf81461081a578063e6e2d3d314610855578063e7c5d7f9146108ba578063f8b71a0514610960575b600080fd5b34801561013957600080fd5b506101666004803603602081101561015057600080fd5b810190808035906020019092919050505061098b565b604051808273ffffffffffffffffffffffffffffffffffffffff1673ffffffffffffffffffffffffffffffffffffffff16815260200191505060405180910390f35b3480156101b457600080fd5b506101f7600480360360208110156101cb57600080fd5b81019080803573ffffffffffffffffffffffffffffffffffffffff1690602001909291905050506109c9565b005b34801561020557600080fd5b5061020e610b60565b6040518080602001828103825283818151815260200191508051906020019060200280838360005b83811015610251578082015181840152602081019050610236565b505050509050019250505060405180910390f35b34801561027157600080fd5b5061027a610bee565b604051808273ffffffffffffffffffffffffffffffffffffffff1673ffffffffffffffffffffffffffffffffffffffff16815260200191505060405180910390f35b3480156102c857600080fd5b506102d1610c13565b6040518082815260200191505060405180910390f35b3480156102f357600080fd5b506103406004803603604081101561030a57600080fd5b81019080803573ffffffffffffffffffffffffffffffffffffffff16906020019092919080359060200190929190505050610c33565b604051808273ffffffffffffffffffffffffffffffffffffffff1673ffffffffffffffffffffffffffffffffffffffff16815260200191505060405180910390f35b34801561038e57600080fd5b506103d1600480360360208110156103a557600080fd5b81019080803573ffffffffffffffffffffffffffffffffffffffff169060200190929190505050610c80565b005b3480156103df57600080fd5b50610422600480360360208110156103f657600080fd5b81019080803573ffffffffffffffffffffffffffffffffffffffff169060200190929190505050610f4d565b005b34801561043057600080fd5b506104736004803603602081101561044757600080fd5b81019080803573ffffffffffffffffffffffffffffffffffffffff169060200190929190505050611196565b005b34801561048157600080fd5b506104c46004803603602081101561049857600080fd5b81019080803573ffffffffffffffffffffffffffffffffffffffff1690602001909291905050506113eb565b005b3480156104d257600080fd5b506104ff600480360360208110156104e957600080fd5b8101908080359060200190929190505050611577565b604051808273ffffffffffffffffffffffffffffffffffffffff1673ffffffffffffffffffffffffffffffffffffffff16815260200191505060405180910390f35b34801561054d57600080fd5b5061057a6004803603602081101561056457600080fd5b81019080803590602001909291905050506115b5565b604051808273ffffffffffffffffffffffffffffffffffffffff1673ffffffffffffffffffffffffffffffffffffffff16815260200191505060405180910390f35b3480156105c857600080fd5b5061060b600480360360208110156105df57600080fd5b81019080803573ffffffffffffffffffffffffffffffffffffffff1690602001909291905050506115f3565b6040518082815260200191505060405180910390f35b34801561062d57600080fd5b5061063661160b565b6040518080602001828103825283818151815260200191508051906020019060200280838360005b8381101561067957808201518184015260208101905061065e565b505050509050019250505060405180910390f35b34801561069957600080fd5b506106dc600480360360208110156106b057600080fd5b81019080803573ffffffffffffffffffffffffffffffffffffffff169060200190929190505050611699565b604051808273ffffffffffffffffffffffffffffffffffffffff1673ffffffffffffffffffffffffffffffffffffffff16815260200191505060405180910390f35b34801561072a57600080fd5b506107336116cc565b6040518082815260200191505060405180910390f35b34801561075557600080fd5b5061075e6116ec565b6040518080602001828103825283818151815260200191508051906020019060200280838360005b838110156107a1578082015181840152602081019050610786565b505050509050019250505060405180910390f35b3480156107c157600080fd5b50610804600480360360208110156107d857600080fd5b81019080803573ffffffffffffffffffffffffffffffffffffffff16906020019092919050505061177a565b6040518082815260200191505060405180910390f35b34801561082657600080fd5b506108536004803603602081101561083d57600080fd5b8101908080359060200190929190505050611792565b005b34801561086157600080fd5b506108a46004803603602081101561087857600080fd5b81019080803573ffffffffffffffffffffffffffffffffffffffff169060200190929190505050611af1565b6040518082815260200191505060405180910390f35b3480156108c657600080fd5b50610909600480360360208110156108dd57600080fd5b81019080803573ffffffffffffffffffffffffffffffffffffffff169060200190929190505050611b09565b6040518080602001828103825283818151815260200191508051906020019060200280838360005b8381101561094c578082015181840152602081019050610931565b505050509050019250505060405180910390f35b34801561096c57600080fd5b50610975611bd6565b6040518082815260200191505060405180910390f35b60078181548110151561099a57fe5b906000526020600020016000915054906101000a900473ffffffffffffffffffffffffffffffffffffffff1681565b6000809054906101000a900473ffffffffffffffffffffffffffffffffffffffff1673ffffffffffffffffffffffffffffffffffffffff163373ffffffffffffffffffffffffffffffffffffffff16141515610a8d576040517f08c379a00000000000000000000000000000000000000000000000000000000081526004018080602001828103825260208152602001807f546869732069732061206d616e616765722d6f6e6c792066756e6374696f6e2181525060200191505060405180910390fd5b6007610ae160018060008573ffffffffffffffffffffffffffffffffffffffff1673ffffffffffffffffffffffffffffffffffffffff16815260200190815260200160002054611bf690919063ffffffff16565b815481101515610aed57fe5b9060005260206000200160006101000a81549073ffffffffffffffffffffffffffffffffffffffff0219169055600160008273ffffffffffffffffffffffffffffffffffffffff1673ffffffffffffffffffffffffffffffffffffffff1681526020019081526020016000206000905550565b60606007805480602002602001604051908101604052809291908181526020018280548015610be457602002820191906000526020600020905b8160009054906101000a900473ffffffffffffffffffffffffffffffffffffffff1673ffffffffffffffffffffffffffffffffffffffff1681526020019060010190808311610b9a575b5050505050905090565b6000809054906101000a900473ffffffffffffffffffffffffffffffffffffffff1681565b6000610c2e6001600380549050611c1890919063ffffffff16565b905090565b600660205281600052604060002081815481101515610c4e57fe5b906000526020600020016000915091509054906101000a900473ffffffffffffffffffffffffffffffffffffffff1681565b6000600260003373ffffffffffffffffffffffffffffffffffffffff1673ffffffffffffffffffffffffffffffffffffffff1681526020019081526020016000205414151515610d5e576040517f08c379a00000000000000000000000000000000000000000000000000000000081526004018080602001828103825260238152602001807f5468697320697320612073746f72656f776e65722d6f6e6c792066756e63746981526020017f6f6e21000000000000000000000000000000000000000000000000000000000081525060400191505060405180910390fd5b60008190508073ffffffffffffffffffffffffffffffffffffffff1663cbf0b0c0336040518263ffffffff167c0100000000000000000000000000000000000000000000000000000000028152600401808273ffffffffffffffffffffffffffffffffffffffff1673ffffffffffffffffffffffffffffffffffffffff168152602001915050600060405180830381600087803b158015610dfe57600080fd5b505af1158015610e12573d6000803e3d6000fd5b505050506003610e6b6001600560008673ffffffffffffffffffffffffffffffffffffffff1673ffffffffffffffffffffffffffffffffffffffff16815260200190815260200160002054611bf690919063ffffffff16565b815481101515610e7757fe5b9060005260206000200160006101000a81549073ffffffffffffffffffffffffffffffffffffffff0219169055600560008373ffffffffffffffffffffffffffffffffffffffff1673ffffffffffffffffffffffffffffffffffffffff16815260200190815260200160002060009055600460008373ffffffffffffffffffffffffffffffffffffffff1673ffffffffffffffffffffffffffffffffffffffff16815260200190815260200160002060006101000a81549073ffffffffffffffffffffffffffffffffffffffff02191690555050565b6000600160003373ffffffffffffffffffffffffffffffffffffffff1673ffffffffffffffffffffffffffffffffffffffff1681526020019081526020016000205414151515611005576040517f08c379a000000000000000000000000000000000000000000000000000000000815260040180806020018281038252601f8152602001807f5468697320697320616e2061646d696e2d6f6e6c792066756e6374696f6e210081525060200191505060405180910390fd5b6000600260008373ffffffffffffffffffffffffffffffffffffffff1673ffffffffffffffffffffffffffffffffffffffff168152602001908152602001600020541415156110e2576040517f08c379a00000000000000000000000000000000000000000000000000000000081526004018080602001828103825260218152602001807f546869732061646d696e20697320616c7265616479207265676973746572656481526020017f210000000000000000000000000000000000000000000000000000000000000081525060400191505060405180910390fd5b6110ea6116cc565b600260008373ffffffffffffffffffffffffffffffffffffffff1673ffffffffffffffffffffffffffffffffffffffff1681526020019081526020016000208190555060088190806001815401808255809150509060018203906000526020600020016000909192909190916101000a81548173ffffffffffffffffffffffffffffffffffffffff021916908373ffffffffffffffffffffffffffffffffffffffff1602179055505050565b6000809054906101000a900473ffffffffffffffffffffffffffffffffffffffff1673ffffffffffffffffffffffffffffffffffffffff163373ffffffffffffffffffffffffffffffffffffffff1614151561125a576040517f08c379a00000000000000000000000000000000000000000000000000000000081526004018080602001828103825260208152602001807f546869732069732061206d616e616765722d6f6e6c792066756e6374696f6e2181525060200191505060405180910390fd5b6000600160008373ffffffffffffffffffffffffffffffffffffffff1673ffffffffffffffffffffffffffffffffffffffff16815260200190815260200160002054141515611337576040517f08c379a00000000000000000000000000000000000000000000000000000000081526004018080602001828103825260218152602001807f546869732061646d696e20697320616c7265616479207265676973746572656481526020017f210000000000000000000000000000000000000000000000000000000000000081525060400191505060405180910390fd5b61133f611bd6565b600160008373ffffffffffffffffffffffffffffffffffffffff1673ffffffffffffffffffffffffffffffffffffffff1681526020019081526020016000208190555060078190806001815401808255809150509060018203906000526020600020016000909192909190916101000a81548173ffffffffffffffffffffffffffffffffffffffff021916908373ffffffffffffffffffffffffffffffffffffffff1602179055505050565b6000600160003373ffffffffffffffffffffffffffffffffffffffff1673ffffffffffffffffffffffffffffffffffffffff16815260200190815260200160002054141515156114a3576040517f08c379a000000000000000000000000000000000000000000000000000000000815260040180806020018281038252601f8152602001807f5468697320697320616e2061646d696e2d6f6e6c792066756e6374696f6e210081525060200191505060405180910390fd5b60086114f86001600260008573ffffffffffffffffffffffffffffffffffffffff1673ffffffffffffffffffffffffffffffffffffffff16815260200190815260200160002054611bf690919063ffffffff16565b81548110151561150457fe5b9060005260206000200160006101000a81549073ffffffffffffffffffffffffffffffffffffffff0219169055600260008273ffffffffffffffffffffffffffffffffffffffff1673ffffffffffffffffffffffffffffffffffffffff1681526020019081526020016000206000905550565b60038181548110151561158657fe5b906000526020600020016000915054906101000a900473ffffffffffffffffffffffffffffffffffffffff1681565b6008818154811015156115c457fe5b906000526020600020016000915054906101000a900473ffffffffffffffffffffffffffffffffffffffff1681565b60026020528060005260406000206000915090505481565b6060600880548060200260200160405190810160405280929190818152602001828054801561168f57602002820191906000526020600020905b8160009054906101000a900473ffffffffffffffffffffffffffffffffffffffff1673ffffffffffffffffffffffffffffffffffffffff1681526020019060010190808311611645575b5050505050905090565b60046020528060005260406000206000915054906101000a900473ffffffffffffffffffffffffffffffffffffffff1681565b60006116e76001600880549050611c1890919063ffffffff16565b905090565b6060600380548060200260200160405190810160405280929190818152602001828054801561177057602002820191906000526020600020905b8160009054906101000a900473ffffffffffffffffffffffffffffffffffffffff1673ffffffffffffffffffffffffffffffffffffffff1681526020019060010190808311611726575b5050505050905090565b60016020528060005260406000206000915090505481565b6000600260003373ffffffffffffffffffffffffffffffffffffffff1673ffffffffffffffffffffffffffffffffffffffff1681526020019081526020016000205414151515611870576040517f08c379a00000000000000000000000000000000000000000000000000000000081526004018080602001828103825260238152602001807f5468697320697320612073746f72656f776e65722d6f6e6c792066756e63746981526020017f6f6e21000000000000000000000000000000000000000000000000000000000081525060400191505060405180910390fd5b6000813361187c611c39565b808381526020018273ffffffffffffffffffffffffffffffffffffffff1673ffffffffffffffffffffffffffffffffffffffff16815260200192505050604051809103906000f0801580156118d5573d6000803e3d6000fd5b5090506118e0610c13565b600560008373ffffffffffffffffffffffffffffffffffffffff1673ffffffffffffffffffffffffffffffffffffffff1681526020019081526020016000208190555060038190806001815401808255809150509060018203906000526020600020016000909192909190916101000a81548173ffffffffffffffffffffffffffffffffffffffff021916908373ffffffffffffffffffffffffffffffffffffffff1602179055505033600460008373ffffffffffffffffffffffffffffffffffffffff1673ffffffffffffffffffffffffffffffffffffffff16815260200190815260200160002060006101000a81548173ffffffffffffffffffffffffffffffffffffffff021916908373ffffffffffffffffffffffffffffffffffffffff160217905550600660003373ffffffffffffffffffffffffffffffffffffffff1673ffffffffffffffffffffffffffffffffffffffff1681526020019081526020016000208190806001815401808255809150509060018203906000526020600020016000909192909190916101000a81548173ffffffffffffffffffffffffffffffffffffffff021916908373ffffffffffffffffffffffffffffffffffffffff160217905550508073ffffffffffffffffffffffffffffffffffffffff167fc39365e80b65656fc2da5913f11f6ae75b768c0cff41d22ea1e8d3e380cb6f2860405160405180910390a25050565b60056020528060005260406000206000915090505481565b6060600660008373ffffffffffffffffffffffffffffffffffffffff1673ffffffffffffffffffffffffffffffffffffffff168152602001908152602001600020805480602002602001604051908101604052809291908181526020018280548015611bca57602002820191906000526020600020905b8160009054906101000a900473ffffffffffffffffffffffffffffffffffffffff1673ffffffffffffffffffffffffffffffffffffffff1681526020019060010190808311611b80575b50505050509050919050565b6000611bf16001600780549050611c1890919063ffffffff16565b905090565b6000828211151515611c0757600080fd5b600082840390508091505092915050565b6000808284019050838110151515611c2f57600080fd5b8091505092915050565b60405161131480611c4a8339019056fe60806040526000600260006101000a81548160ff02191690831515021790555034801561002b57600080fd5b506040516040806113148339810180604052604081101561004b57600080fd5b810190808051906020019092919080519060200190929190505050806000806101000a81548173ffffffffffffffffffffffffffffffffffffffff021916908373ffffffffffffffffffffffffffffffffffffffff160217905550816001819055505050611256806100be6000396000f3fe6080604052600436106100db576000357c0100000000000000000000000000000000000000000000000000000000900463ffffffff16806312253a6c146100e057806317a706ad146100f757806324600fc31461013c5780634316af4714610153578063521936e6146101b757806352656a38146101e257806353b62866146102455780635ee95cae1461027d5780636813b53b146102b8578063712611dd1461031c57806371299e361461036b57806375f12b21146103c25780637acc0b20146103f15780637ebc0a8214610455578063cbf0b0c0146104c1575b600080fd5b3480156100ec57600080fd5b506100f5610512565b005b34801561010357600080fd5b5061013a6004803603604081101561011a57600080fd5b810190808035906020019092919080359060200190929190505050610619565b005b34801561014857600080fd5b5061015161075a565b005b34801561015f57600080fd5b5061018c6004803603602081101561017657600080fd5b81019080803590602001909291905050506108a4565b6040518085815260200184815260200183815260200182815260200194505050505060405180910390f35b3480156101c357600080fd5b506101cc6108d4565b6040518082815260200191505060405180910390f35b3480156101ee57600080fd5b5061022f6004803603606081101561020557600080fd5b810190808035906020019092919080359060200190929190803590602001909291905050506108da565b6040518082815260200191505060405180910390f35b61027b6004803603604081101561025b57600080fd5b810190808035906020019092919080359060200190929190505050610acb565b005b34801561028957600080fd5b506102b6600480360360208110156102a057600080fd5b8101908080359060200190929190505050610d47565b005b3480156102c457600080fd5b506102f1600480360360208110156102db57600080fd5b8101908080359060200190929190505050610eed565b6040518085815260200184815260200183815260200182815260200194505050505060405180910390f35b34801561032857600080fd5b506103556004803603602081101561033f57600080fd5b8101908080359060200190929190505050610f68565b6040518082815260200191505060405180910390f35b34801561037757600080fd5b50610380610f8b565b604051808273ffffffffffffffffffffffffffffffffffffffff1673ffffffffffffffffffffffffffffffffffffffff16815260200191505060405180910390f35b3480156103ce57600080fd5b506103d7610fb0565b604051808215151515815260200191505060405180910390f35b3480156103fd57600080fd5b5061042a6004803603602081101561041457600080fd5b8101908080359060200190929190505050610fc3565b6040518085815260200184815260200183815260200182815260200194505050505060405180910390f35b34801561046157600080fd5b5061046a611002565b6040518080602001828103825283818151815260200191508051906020019060200280838360005b838110156104ad578082015181840152602081019050610492565b505050509050019250505060405180910390f35b3480156104cd57600080fd5b50610510600480360360208110156104e457600080fd5b81019080803573ffffffffffffffffffffffffffffffffffffffff16906020019092919050505061105a565b005b3373ffffffffffffffffffffffffffffffffffffffff166000809054906101000a900473ffffffffffffffffffffffffffffffffffffffff1673ffffffffffffffffffffffffffffffffffffffff161415156105fc576040517f08c379a00000000000000000000000000000000000000000000000000000000081526004018080602001828103825260238152602001807f5468697320697320612073746f72656f776e65722d6f6e6c792066756e63746981526020017f6f6e21000000000000000000000000000000000000000000000000000000000081525060400191505060405180910390fd5b6001600260006101000a81548160ff021916908315150217905550565b3373ffffffffffffffffffffffffffffffffffffffff166000809054906101000a900473ffffffffffffffffffffffffffffffffffffffff1673ffffffffffffffffffffffffffffffffffffffff16141515610703576040517f08c379a00000000000000000000000000000000000000000000000000000000081526004018080602001828103825260238152602001807f5468697320697320612073746f72656f776e65722d6f6e6c792066756e63746981526020017f6f6e21000000000000000000000000000000000000000000000000000000000081525060400191505060405180910390fd5b80600361071a60018561115d90919063ffffffff16565b81548110151561072657fe5b9060005260206000209060040201600201819055508060046000848152602001908152602001600020600201819055505050565b3373ffffffffffffffffffffffffffffffffffffffff166000809054906101000a900473ffffffffffffffffffffffffffffffffffffffff1673ffffffffffffffffffffffffffffffffffffffff16141515610844576040517f08c379a00000000000000000000000000000000000000000000000000000000081526004018080602001828103825260238152602001807f5468697320697320612073746f72656f776e65722d6f6e6c792066756e63746981526020017f6f6e21000000000000000000000000000000000000000000000000000000000081525060400191505060405180910390fd5b3373ffffffffffffffffffffffffffffffffffffffff166108fc3073ffffffffffffffffffffffffffffffffffffffff16319081150290604051600060405180830381858888f193505050501580156108a1573d6000803e3d6000fd5b50565b60046020528060005260406000206000915090508060000154908060010154908060020154908060030154905084565b60015481565b60003373ffffffffffffffffffffffffffffffffffffffff166000809054906101000a900473ffffffffffffffffffffffffffffffffffffffff1673ffffffffffffffffffffffffffffffffffffffff161415156109c6576040517f08c379a00000000000000000000000000000000000000000000000000000000081526004018080602001828103825260238152602001807f5468697320697320612073746f72656f776e65722d6f6e6c792066756e63746981526020017f6f6e21000000000000000000000000000000000000000000000000000000000081525060400191505060405180910390fd5b6109ce61117f565b90506109d86111fe565b60806040519081016040528083815260200186815260200185815260200184815250905060038190806001815401808255809150509060018203906000526020600020906004020160009091929091909150600082015181600001556020820151816001015560408201518160020155606082015181600301555050508060046000848152602001908152602001600020600082015181600001556020820151816001015560408201518160020155606082015181600301559050506005829080600181540180825580915050906001820390600052602060002001600090919290919091505550819150509392505050565b60001515600260009054906101000a900460ff161515141515610b56576040517f08c379a00000000000000000000000000000000000000000000000000000000081526004018080602001828103825260198152602001807f5468697320636f6e74726163742069732073746f70706564210000000000000081525060200191505060405180910390fd5b34610b8082600460008681526020019081526020016000206002015461119f90919063ffffffff16565b141515610bf5576040517f08c379a000000000000000000000000000000000000000000000000000000000815260040180806020018281038252601a8152602001807f53656e7420457468657273206973206e6f7420656e6f7567682100000000000081525060200191505060405180910390fd5b80600460008481526020019081526020016000206003015410151515610c83576040517f08c379a00000000000000000000000000000000000000000000000000000000081526004018080602001828103825260208152602001807f4e6f7420656e6f756768207069656365732061726520617661696c61626c652181525060200191505060405180910390fd5b610cc9816003610c9d60018661115d90919063ffffffff16565b815481101515610ca957fe5b90600052602060002090600402016003015461115d90919063ffffffff16565b6003610cdf60018561115d90919063ffffffff16565b815481101515610ceb57fe5b906000526020600020906004020160030181905550610d2981600460008581526020019081526020016000206003015461115d90919063ffffffff16565b60046000848152602001908152602001600020600301819055505050565b3373ffffffffffffffffffffffffffffffffffffffff166000809054906101000a900473ffffffffffffffffffffffffffffffffffffffff1673ffffffffffffffffffffffffffffffffffffffff16141515610e31576040517f08c379a00000000000000000000000000000000000000000000000000000000081526004018080602001828103825260238152602001807f5468697320697320612073746f72656f776e65722d6f6e6c792066756e63746981526020017f6f6e21000000000000000000000000000000000000000000000000000000000081525060400191505060405180910390fd5b6003610e4760018361115d90919063ffffffff16565b815481101515610e5357fe5b906000526020600020906004020160008082016000905560018201600090556002820160009055600382016000905550506004600082815260200190815260200160002060008082016000905560018201600090556002820160009055600382016000905550506005610ed060018361115d90919063ffffffff16565b815481101515610edc57fe5b906000526020600020016000905550565b600080600080610efb6111fe565b6004600087815260200190815260200160002060806040519081016040529081600082015481526020016001820154815260200160028201548152602001600382015481525050905080600001518160200151826040015183606001519450945094509450509193509193565b600581815481101515610f7757fe5b906000526020600020016000915090505481565b6000809054906101000a900473ffffffffffffffffffffffffffffffffffffffff1681565b600260009054906101000a900460ff1681565b600381815481101515610fd257fe5b90600052602060002090600402016000915090508060000154908060010154908060020154908060030154905084565b6060600580548060200260200160405190810160405280929190818152602001828054801561105057602002820191906000526020600020905b81548152602001906001019080831161103c575b5050505050905090565b8073ffffffffffffffffffffffffffffffffffffffff166000809054906101000a900473ffffffffffffffffffffffffffffffffffffffff1673ffffffffffffffffffffffffffffffffffffffff16141515611144576040517f08c379a000000000000000000000000000000000000000000000000000000000815260040180806020018281038252602e8152602001807f4f6e6c792073746f72656f776e6572732063616e2072656d6f7665207468656981526020017f722073746f726566726f6e74732100000000000000000000000000000000000081525060400191505060405180910390fd5b8073ffffffffffffffffffffffffffffffffffffffff16ff5b600082821115151561116e57600080fd5b600082840390508091505092915050565b600061119a60016003805490506111dd90919063ffffffff16565b905090565b6000808314156111b257600090506111d7565b600082840290508284828115156111c557fe5b041415156111d257600080fd5b809150505b92915050565b60008082840190508381101515156111f457600080fd5b8091505092915050565b60806040519081016040528060008152602001600080191681526020016000815260200160008152509056fea165627a7a72305820f8269230b2a73ff5dee73e547d12d7e2f5e7507752534db2885ae58e3c95d9700029a165627a7a723058209e0e2f1fb799f9f1bda8fb9741972ef6d5f6765f229134b03583558ed518845c0029",
  "source": "pragma solidity ^0.5;\n\n\nimport \"./Storefront.sol\";\nimport \"openzeppelin-solidity/contracts/math/SafeMath.sol\";\n\n\ncontract Marketplace {\n    using SafeMath for uint256;\n\n    address public manager;\n\n    mapping(address => uint256) public adminToId;\n    mapping(address => uint256) public storeownerToId;\n\n    /* events */\n    event storefrontCreated(Storefront indexed newStorefront);\n    \n    /* list of deployed storefronts contracts */\n    address[] public deployedStorefronts;\n\n    /* helpers */\n    mapping(address => address) public storeAddressToStoreowner;\n    mapping(address => uint256) public storeAddressToId;\n    mapping(address => address[]) public storeownerToStorefronts;\n    address[] public admins;\n    address[] public storeowners;\n\n    /* modifiers */\n    modifier onlyManager {\n        require(msg.sender == manager, \"This is a manager-only function!\");\n        _;\n    }\n\n    modifier onlyAdmin {\n        require(adminToId[msg.sender] != 0, \"This is an admin-only function!\");\n        _;\n    }\n\n    modifier onlyStoreowner {\n        require(storeownerToId[msg.sender] != 0, \"This is a storeowner-only function!\");\n        _;\n    }\n\n\n    constructor() public {\n        manager = msg.sender;\n    }\n\n    /* manager functionalities */\n    function addAdmin(address _newAdmin) public onlyManager {\n        require(adminToId[_newAdmin] == 0, \"This admin is already registered!\");\n\n        adminToId[_newAdmin] = getNewAdminId();\n        admins.push(_newAdmin);\n    }\n\n    function removeAdmin(address _currAdmin) public onlyManager {\n\n        delete admins[adminToId[_currAdmin].sub(1)];\n        delete adminToId[_currAdmin];\n    }\n\n    /* admins functionalities */\n    function addStoreowner(address _newStoreowner) public onlyAdmin {\n        require(storeownerToId[_newStoreowner] == 0, \"This admin is already registered!\");\n\n        storeownerToId[_newStoreowner] = getNewStoreownerId();\n        storeowners.push(_newStoreowner);\n    }\n\n    function removeStoreowner(address _currStoreowner) public onlyAdmin {\n\n        delete storeowners[storeownerToId[_currStoreowner].sub(1)];\n        delete storeownerToId[_currStoreowner];\n    }\n\n    /* storeowners functionalities */\n    function createStorefront(bytes32 _storeName) public onlyStoreowner {\n\n        Storefront newStorefront = new Storefront(_storeName, msg.sender);\n\n        storeAddressToId[address(newStorefront)] = getNewStorefrontId();\n        deployedStorefronts.push(address(newStorefront));\n\n        storeAddressToStoreowner[address(newStorefront)] = msg.sender;\n        storeownerToStorefronts[msg.sender].push(address(newStorefront));\n\n        emit storefrontCreated(newStorefront);\n    }\n\n    function removeStorefront(address _storeAddress) public onlyStoreowner {\n\n        Storefront toBeDestructed = Storefront(_storeAddress);\n        \n        toBeDestructed.kill(msg.sender);\n        \n        delete deployedStorefronts[storeAddressToId[_storeAddress].sub(1)];\n        delete storeAddressToId[_storeAddress];\n        delete storeAddressToStoreowner[_storeAddress];\n    }\n\n    /* helpers */\n    function getDeployedStorefronts() public view returns (address[] memory) {\n        return deployedStorefronts;\n    }\n\n    function getAdmins() public view returns (address[] memory) {\n        return admins;\n    }\n\n    function getStoreowners() public view returns (address[] memory) {\n        return storeowners;\n    }\n\n    function getNewAdminId() public view returns (uint256) {\n        /* Ids starts from 1 */\n        return admins.length.add(1);\n    }\n\n    function getNewStoreownerId() public view returns (uint256) {\n        /* Ids starts from 1 */\n        return storeowners.length.add(1);\n    }\n\n    function getNewStorefrontId() public view returns (uint256) {\n        /* Ids starts from 1 */\n        return deployedStorefronts.length.add(1);\n    }\n\n    function getOwnerStorefronts(address _storeowner) public view returns (address[] memory) {\n        return storeownerToStorefronts[_storeowner];\n    }\n}",
  "sourcePath": "/home/f/ConsenSysDevProgram/eth-bootcamp-final-project/contracts/Marketplace.sol",
  "compiler": {
    "name": "solc",
    "version": "0.5.0+commit.1d4f565a.Emscripten.clang"
  },
  "schemaVersion": "3.0.0",
  "updatedAt": "2019-01-26T13:37:00.278Z",
  "devdoc": {
    "methods": {}
  },
  "userdoc": {
    "methods": {}
  }
}