{
  "contractName": "Marketplace",
  "abi": [
    {
      "constant": true,
      "inputs": [
        {
          "name": "",
          "type": "bytes32"
        }
      ],
      "name": "storeToOwner",
      "outputs": [
        {
          "name": "",
          "type": "address"
        }
      ],
      "payable": false,
      "stateMutability": "view",
      "type": "function",
      "signature": "0x0be1cf50"
    },
    {
      "constant": true,
      "inputs": [
        {
          "name": "",
          "type": "bytes32"
        },
        {
          "name": "",
          "type": "uint256"
        }
      ],
      "name": "storeToProductsIds",
      "outputs": [
        {
          "name": "",
          "type": "uint256"
        }
      ],
      "payable": false,
      "stateMutability": "view",
      "type": "function",
      "signature": "0x22c6deda"
    },
    {
      "constant": true,
      "inputs": [
        {
          "name": "",
          "type": "address"
        }
      ],
      "name": "isAdmin",
      "outputs": [
        {
          "name": "",
          "type": "bool"
        }
      ],
      "payable": false,
      "stateMutability": "view",
      "type": "function",
      "signature": "0x24d7806c"
    },
    {
      "constant": true,
      "inputs": [
        {
          "name": "",
          "type": "uint256"
        }
      ],
      "name": "storeFronts",
      "outputs": [
        {
          "name": "",
          "type": "bytes32"
        }
      ],
      "payable": false,
      "stateMutability": "view",
      "type": "function",
      "signature": "0x3191d401"
    },
    {
      "constant": true,
      "inputs": [
        {
          "name": "",
          "type": "bytes32"
        },
        {
          "name": "",
          "type": "uint256"
        }
      ],
      "name": "storeToProducts",
      "outputs": [
        {
          "name": "storeName",
          "type": "bytes32"
        },
        {
          "name": "id",
          "type": "uint256"
        },
        {
          "name": "name",
          "type": "bytes32"
        },
        {
          "name": "price",
          "type": "uint256"
        },
        {
          "name": "amount",
          "type": "uint256"
        }
      ],
      "payable": false,
      "stateMutability": "view",
      "type": "function",
      "signature": "0x3320efba"
    },
    {
      "constant": true,
      "inputs": [
        {
          "name": "",
          "type": "uint256"
        }
      ],
      "name": "idToProduct",
      "outputs": [
        {
          "name": "storeName",
          "type": "bytes32"
        },
        {
          "name": "id",
          "type": "uint256"
        },
        {
          "name": "name",
          "type": "bytes32"
        },
        {
          "name": "price",
          "type": "uint256"
        },
        {
          "name": "amount",
          "type": "uint256"
        }
      ],
      "payable": false,
      "stateMutability": "view",
      "type": "function",
      "signature": "0x4316af47"
    },
    {
      "constant": true,
      "inputs": [],
      "name": "manager",
      "outputs": [
        {
          "name": "",
          "type": "address"
        }
      ],
      "payable": false,
      "stateMutability": "view",
      "type": "function",
      "signature": "0x481c6a75"
    },
    {
      "constant": true,
      "inputs": [
        {
          "name": "",
          "type": "bytes32"
        }
      ],
      "name": "storeToStoreId",
      "outputs": [
        {
          "name": "",
          "type": "uint256"
        }
      ],
      "payable": false,
      "stateMutability": "view",
      "type": "function",
      "signature": "0x4e644f4b"
    },
    {
      "constant": true,
      "inputs": [
        {
          "name": "",
          "type": "address"
        }
      ],
      "name": "isStoreOwner",
      "outputs": [
        {
          "name": "",
          "type": "bool"
        }
      ],
      "payable": false,
      "stateMutability": "view",
      "type": "function",
      "signature": "0x5effd33c"
    },
    {
      "inputs": [],
      "payable": false,
      "stateMutability": "nonpayable",
      "type": "constructor",
      "signature": "constructor"
    },
    {
      "anonymous": false,
      "inputs": [
        {
          "indexed": true,
          "name": "storeName",
          "type": "bytes32"
        },
        {
          "indexed": true,
          "name": "storeId",
          "type": "uint256"
        }
      ],
      "name": "storeCreated",
      "type": "event",
      "signature": "0x98fddc06b9cd3da3faabd01b677f6fd6492d705cb9296fee4e5cdae8735d86d9"
    },
    {
      "constant": false,
      "inputs": [
        {
          "name": "_newAdmin",
          "type": "address"
        }
      ],
      "name": "addAdmin",
      "outputs": [],
      "payable": false,
      "stateMutability": "nonpayable",
      "type": "function",
      "signature": "0x70480275"
    },
    {
      "constant": false,
      "inputs": [
        {
          "name": "_currAdmin",
          "type": "address"
        }
      ],
      "name": "removeAdmin",
      "outputs": [],
      "payable": false,
      "stateMutability": "nonpayable",
      "type": "function",
      "signature": "0x1785f53c"
    },
    {
      "constant": false,
      "inputs": [
        {
          "name": "_newStoreOwner",
          "type": "address"
        }
      ],
      "name": "addStoreOwner",
      "outputs": [],
      "payable": false,
      "stateMutability": "nonpayable",
      "type": "function",
      "signature": "0x9adeb5f1"
    },
    {
      "constant": false,
      "inputs": [
        {
          "name": "_currStoreOwner",
          "type": "address"
        }
      ],
      "name": "removeStoreOwner",
      "outputs": [],
      "payable": false,
      "stateMutability": "nonpayable",
      "type": "function",
      "signature": "0x6174fdd1"
    },
    {
      "constant": false,
      "inputs": [
        {
          "name": "_storeName",
          "type": "bytes32"
        }
      ],
      "name": "createStoreFront",
      "outputs": [],
      "payable": false,
      "stateMutability": "nonpayable",
      "type": "function",
      "signature": "0xa050200f"
    },
    {
      "constant": false,
      "inputs": [
        {
          "name": "_storeName",
          "type": "bytes32"
        }
      ],
      "name": "removeStoreFront",
      "outputs": [],
      "payable": false,
      "stateMutability": "nonpayable",
      "type": "function",
      "signature": "0xee7bb13d"
    },
    {
      "constant": false,
      "inputs": [
        {
          "name": "_storeName",
          "type": "bytes32"
        },
        {
          "name": "_prName",
          "type": "bytes32"
        },
        {
          "name": "_prPrice",
          "type": "uint256"
        },
        {
          "name": "_prAmount",
          "type": "uint256"
        }
      ],
      "name": "addProduct",
      "outputs": [
        {
          "name": "prId",
          "type": "uint256"
        }
      ],
      "payable": false,
      "stateMutability": "nonpayable",
      "type": "function",
      "signature": "0x23213f1d"
    },
    {
      "constant": false,
      "inputs": [
        {
          "name": "_storeName",
          "type": "bytes32"
        },
        {
          "name": "_prId",
          "type": "uint256"
        }
      ],
      "name": "removeProduct",
      "outputs": [],
      "payable": false,
      "stateMutability": "nonpayable",
      "type": "function",
      "signature": "0xc8687621"
    },
    {
      "constant": false,
      "inputs": [
        {
          "name": "_storeName",
          "type": "bytes32"
        },
        {
          "name": "_prId",
          "type": "uint256"
        },
        {
          "name": "_newPrice",
          "type": "uint256"
        }
      ],
      "name": "editProductPrice",
      "outputs": [],
      "payable": false,
      "stateMutability": "nonpayable",
      "type": "function",
      "signature": "0xe48897e9"
    },
    {
      "constant": false,
      "inputs": [
        {
          "name": "_storeName",
          "type": "bytes32"
        },
        {
          "name": "_prId",
          "type": "uint256"
        }
      ],
      "name": "buyProduct",
      "outputs": [],
      "payable": true,
      "stateMutability": "payable",
      "type": "function",
      "signature": "0x9743f771"
    },
    {
      "constant": true,
      "inputs": [],
      "name": "getNewStoreId",
      "outputs": [
        {
          "name": "",
          "type": "uint256"
        }
      ],
      "payable": false,
      "stateMutability": "view",
      "type": "function",
      "signature": "0x911a3e32"
    },
    {
      "constant": true,
      "inputs": [],
      "name": "getStoreFronts",
      "outputs": [
        {
          "name": "",
          "type": "bytes32[]"
        }
      ],
      "payable": false,
      "stateMutability": "view",
      "type": "function",
      "signature": "0x5127db91"
    },
    {
      "constant": true,
      "inputs": [
        {
          "name": "_storeName",
          "type": "bytes32"
        }
      ],
      "name": "getProductsIdsInStore",
      "outputs": [
        {
          "name": "",
          "type": "uint256[]"
        }
      ],
      "payable": false,
      "stateMutability": "view",
      "type": "function",
      "signature": "0x6f2012a2"
    },
    {
      "constant": true,
      "inputs": [
        {
          "name": "_prId",
          "type": "uint256"
        }
      ],
      "name": "getProductDetails",
      "outputs": [
        {
          "name": "",
          "type": "bytes32"
        },
        {
          "name": "",
          "type": "uint256"
        },
        {
          "name": "",
          "type": "bytes32"
        },
        {
          "name": "",
          "type": "uint256"
        },
        {
          "name": "",
          "type": "uint256"
        }
      ],
      "payable": false,
      "stateMutability": "view",
      "type": "function",
      "signature": "0x6813b53b"
    }
  ],
  "bytecode": "0x608060405234801561001057600080fd5b50336000806101000a81548173ffffffffffffffffffffffffffffffffffffffff021916908373ffffffffffffffffffffffffffffffffffffffff160217905550611e6b806100606000396000f3fe608060405260043610610133576000357c0100000000000000000000000000000000000000000000000000000000900463ffffffff1680630be1cf50146101385780631785f53c146101b357806322c6deda1461020457806323213f1d1461025d57806324d7806c146102ca5780633191d401146103335780633320efba146103825780634316af47146103f7578063481c6a75146104625780634e644f4b146104b95780635127db91146105085780635effd33c146105745780636174fdd1146105dd5780636813b53b1461062e5780636f2012a2146106995780637048027514610729578063911a3e321461077a5780639743f771146107a55780639adeb5f1146107dd578063a050200f1461082e578063c868762114610869578063e48897e9146108ae578063ee7bb13d146108fd575b600080fd5b34801561014457600080fd5b506101716004803603602081101561015b57600080fd5b8101908080359060200190929190505050610938565b604051808273ffffffffffffffffffffffffffffffffffffffff1673ffffffffffffffffffffffffffffffffffffffff16815260200191505060405180910390f35b3480156101bf57600080fd5b50610202600480360360208110156101d657600080fd5b81019080803573ffffffffffffffffffffffffffffffffffffffff16906020019092919050505061096b565b005b34801561021057600080fd5b506102476004803603604081101561022757600080fd5b810190808035906020019092919080359060200190929190505050610a8a565b6040518082815260200191505060405180910390f35b34801561026957600080fd5b506102b46004803603608081101561028057600080fd5b8101908080359060200190929190803590602001909291908035906020019092919080359060200190929190505050610aba565b6040518082815260200191505060405180910390f35b3480156102d657600080fd5b50610319600480360360208110156102ed57600080fd5b81019080803573ffffffffffffffffffffffffffffffffffffffff169060200190929190505050610ce1565b604051808215151515815260200191505060405180910390f35b34801561033f57600080fd5b5061036c6004803603602081101561035657600080fd5b8101908080359060200190929190505050610d01565b6040518082815260200191505060405180910390f35b34801561038e57600080fd5b506103c5600480360360408110156103a557600080fd5b810190808035906020019092919080359060200190929190505050610d24565b604051808681526020018581526020018481526020018381526020018281526020019550505050505060405180910390f35b34801561040357600080fd5b506104306004803603602081101561041a57600080fd5b8101908080359060200190929190505050610d67565b604051808681526020018581526020018481526020018381526020018281526020019550505050505060405180910390f35b34801561046e57600080fd5b50610477610d9d565b604051808273ffffffffffffffffffffffffffffffffffffffff1673ffffffffffffffffffffffffffffffffffffffff16815260200191505060405180910390f35b3480156104c557600080fd5b506104f2600480360360208110156104dc57600080fd5b8101908080359060200190929190505050610dc2565b6040518082815260200191505060405180910390f35b34801561051457600080fd5b5061051d610dda565b6040518080602001828103825283818151815260200191508051906020019060200280838360005b83811015610560578082015181840152602081019050610545565b505050509050019250505060405180910390f35b34801561058057600080fd5b506105c36004803603602081101561059757600080fd5b81019080803573ffffffffffffffffffffffffffffffffffffffff169060200190929190505050610e32565b604051808215151515815260200191505060405180910390f35b3480156105e957600080fd5b5061062c6004803603602081101561060057600080fd5b81019080803573ffffffffffffffffffffffffffffffffffffffff169060200190929190505050610e52565b005b34801561063a57600080fd5b506106676004803603602081101561065157600080fd5b8101908080359060200190929190505050610f94565b604051808681526020018581526020018481526020018381526020018281526020019550505050505060405180910390f35b3480156106a557600080fd5b506106d2600480360360208110156106bc57600080fd5b8101908080359060200190929190505050611024565b6040518080602001828103825283818151815260200191508051906020019060200280838360005b838110156107155780820151818401526020810190506106fa565b505050509050019250505060405180910390f35b34801561073557600080fd5b506107786004803603602081101561074c57600080fd5b81019080803573ffffffffffffffffffffffffffffffffffffffff16906020019092919050505061108f565b005b34801561078657600080fd5b5061078f6111ad565b6040518082815260200191505060405180910390f35b6107db600480360360408110156107bb57600080fd5b8101908080359060200190929190803590602001909291905050506111bd565b005b3480156107e957600080fd5b5061082c6004803603602081101561080057600080fd5b81019080803573ffffffffffffffffffffffffffffffffffffffff169060200190929190505050611573565b005b34801561083a57600080fd5b506108676004803603602081101561085157600080fd5b81019080803590602001909291905050506116b5565b005b34801561087557600080fd5b506108ac6004803603604081101561088c57600080fd5b81019080803590602001909291908035906020019092919050505061187d565b005b3480156108ba57600080fd5b506108fb600480360360608110156108d157600080fd5b81019080803590602001909291908035906020019092919080359060200190929190505050611a3b565b005b34801561090957600080fd5b506109366004803603602081101561092057600080fd5b8101908080359060200190929190505050611b83565b005b60036020528060005260406000206000915054906101000a900473ffffffffffffffffffffffffffffffffffffffff1681565b6000809054906101000a900473ffffffffffffffffffffffffffffffffffffffff1673ffffffffffffffffffffffffffffffffffffffff163373ffffffffffffffffffffffffffffffffffffffff16141515610a2f576040517f08c379a000000000000000000000000000000000000000000000000000000000815260040180806020018281038252601f8152602001807f4f6e6c79206d616e616765722063616e2072656d6f76652061646d696e73210081525060200191505060405180910390fd5b6000600160008373ffffffffffffffffffffffffffffffffffffffff1673ffffffffffffffffffffffffffffffffffffffff16815260200190815260200160002060006101000a81548160ff02191690831515021790555050565b600560205281600052604060002081815481101515610aa557fe5b90600052602060002001600091509150505481565b60003373ffffffffffffffffffffffffffffffffffffffff166003600087815260200190815260200160002060009054906101000a900473ffffffffffffffffffffffffffffffffffffffff1673ffffffffffffffffffffffffffffffffffffffff16141515610bb8576040517f08c379a00000000000000000000000000000000000000000000000000000000081526004018080602001828103825260278152602001807f4f6e6c792073746f7265206f776e6572732063616e20616464206e657720707281526020017f6f6475637473210000000000000000000000000000000000000000000000000081525060400191505060405180910390fd5b610bc185611da0565b9050610bcb611dc3565b60a060405190810160405280878152602001838152602001868152602001858152602001848152509050806004600088815260200190815260200160002060008481526020019081526020016000206000820151816000015560208201518160010155604082015181600201556060820151816003015560808201518160040155905050806006600084815260200190815260200160002060008201518160000155602082015181600101556040820151816002015560608201518160030155608082015181600401559050506005600087815260200190815260200160002082908060018154018082558091505090600182039060005260206000200160009091929091909150555081915050949350505050565b60016020528060005260406000206000915054906101000a900460ff1681565b600881815481101515610d1057fe5b906000526020600020016000915090505481565b6004602052816000526040600020602052806000526040600020600091509150508060000154908060010154908060020154908060030154908060040154905085565b60066020528060005260406000206000915090508060000154908060010154908060020154908060030154908060040154905085565b6000809054906101000a900473ffffffffffffffffffffffffffffffffffffffff1681565b60076020528060005260406000206000915090505481565b60606008805480602002602001604051908101604052809291908181526020018280548015610e2857602002820191906000526020600020905b815481526020019060010190808311610e14575b5050505050905090565b60026020528060005260406000206000915054906101000a900460ff1681565b600160003373ffffffffffffffffffffffffffffffffffffffff1673ffffffffffffffffffffffffffffffffffffffff16815260200190815260200160002060009054906101000a900460ff161515610f39576040517f08c379a00000000000000000000000000000000000000000000000000000000081526004018080602001828103825260248152602001807f4f6e6c792061646d696e732063616e2072656d6f76652073746f7265206f776e81526020017f657273210000000000000000000000000000000000000000000000000000000081525060400191505060405180910390fd5b6000600260008373ffffffffffffffffffffffffffffffffffffffff1673ffffffffffffffffffffffffffffffffffffffff16815260200190815260200160002060006101000a81548160ff02191690831515021790555050565b6000806000806000610fa4611dc3565b6006600088815260200190815260200160002060a0604051908101604052908160008201548152602001600182015481526020016002820154815260200160038201548152602001600482015481525050905080600001518160200151826040015183606001518460800151955095509550955095505091939590929450565b60606005600083815260200190815260200160002080548060200260200160405190810160405280929190818152602001828054801561108357602002820191906000526020600020905b81548152602001906001019080831161106f575b50505050509050919050565b6000809054906101000a900473ffffffffffffffffffffffffffffffffffffffff1673ffffffffffffffffffffffffffffffffffffffff163373ffffffffffffffffffffffffffffffffffffffff16141515611153576040517f08c379a00000000000000000000000000000000000000000000000000000000081526004018080602001828103825260208152602001807f4f6e6c79206d616e616765722063616e20616464206e65772061646d696e732181525060200191505060405180910390fd5b60018060008373ffffffffffffffffffffffffffffffffffffffff1673ffffffffffffffffffffffffffffffffffffffff16815260200190815260200160002060006101000a81548160ff02191690831515021790555050565b6000600160088054905001905090565b600073ffffffffffffffffffffffffffffffffffffffff166003600084815260200190815260200160002060009054906101000a900473ffffffffffffffffffffffffffffffffffffffff1673ffffffffffffffffffffffffffffffffffffffff1614151515611295576040517f08c379a00000000000000000000000000000000000000000000000000000000081526004018080602001828103825260158152602001807f53746f726520646f6573206e6f7420657869737421000000000000000000000081525060200191505060405180910390fd5b6004600083815260200190815260200160002060008281526020019081526020016000206003015434141515611333576040517f08c379a000000000000000000000000000000000000000000000000000000000815260040180806020018281038252601a8152602001807f53656e7420457468657273206973206e6f7420656e6f7567682100000000000081525060200191505060405180910390fd5b60046000838152602001908152602001600020600082815260200190815260200160002060000154821415156113f7576040517f08c379a00000000000000000000000000000000000000000000000000000000081526004018080602001828103825260268152602001807f52657175697265642070726f64756374206973206e6f7420696e20746869732081526020017f73746f726521000000000000000000000000000000000000000000000000000081525060400191505060405180910390fd5b600060046000848152602001908152602001600020600083815260200190815260200160002060040154111515611496576040517f08c379a000000000000000000000000000000000000000000000000000000000815260040180806020018281038252601b8152602001807f4e6f206d6f72652070726f647563747320617661696c61626c6521000000000081525060200191505060405180910390fd5b6003600083815260200190815260200160002060009054906101000a900473ffffffffffffffffffffffffffffffffffffffff1673ffffffffffffffffffffffffffffffffffffffff166108fc349081150290604051600060405180830381858888f1935050505015801561150f573d6000803e3d6000fd5b5060046000838152602001908152602001600020600082815260200190815260200160002060040160008154809291906001900391905055506006600082815260200190815260200160002060040160008154809291906001900391905055505050565b600160003373ffffffffffffffffffffffffffffffffffffffff1673ffffffffffffffffffffffffffffffffffffffff16815260200190815260200160002060009054906101000a900460ff16151561165a576040517f08c379a00000000000000000000000000000000000000000000000000000000081526004018080602001828103825260258152602001807f4f6e6c792061646d696e732063616e20616464206e65772073746f7265206f7781526020017f6e6572732100000000000000000000000000000000000000000000000000000081525060400191505060405180910390fd5b6001600260008373ffffffffffffffffffffffffffffffffffffffff1673ffffffffffffffffffffffffffffffffffffffff16815260200190815260200160002060006101000a81548160ff02191690831515021790555050565b600260003373ffffffffffffffffffffffffffffffffffffffff1673ffffffffffffffffffffffffffffffffffffffff16815260200190815260200160002060009054906101000a900460ff16151561179c576040517f08c379a00000000000000000000000000000000000000000000000000000000081526004018080602001828103825260398152602001807f4f6e6c7920726567697374657265642073746f7265206f776e6572732063616e81526020017f20637265617465206e65772073746f72652066726f6e7473210000000000000081525060400191505060405180910390fd5b336003600083815260200190815260200160002060006101000a81548173ffffffffffffffffffffffffffffffffffffffff021916908373ffffffffffffffffffffffffffffffffffffffff1602179055506117f66111ad565b600760008381526020019081526020016000208190555060088190806001815401808255809150509060018203906000526020600020016000909192909190915055506007600082815260200190815260200160002054817f98fddc06b9cd3da3faabd01b677f6fd6492d705cb9296fee4e5cdae8735d86d960405160405180910390a350565b3373ffffffffffffffffffffffffffffffffffffffff166003600084815260200190815260200160002060009054906101000a900473ffffffffffffffffffffffffffffffffffffffff1673ffffffffffffffffffffffffffffffffffffffff16141515611979576040517f08c379a00000000000000000000000000000000000000000000000000000000081526004018080602001828103825260278152602001807f4f6e6c792073746f7265206f776e6572732063616e20616464206e657720707281526020017f6f6475637473210000000000000000000000000000000000000000000000000081525060400191505060405180910390fd5b6004600083815260200190815260200160002060008281526020019081526020016000206000808201600090556001820160009055600282016000905560038201600090556004820160009055505060066000828152602001908152602001600020600080820160009055600182016000905560028201600090556003820160009055600482016000905550506005600083815260200190815260200160002060018203815481101515611a2957fe5b90600052602060002001600090555050565b3373ffffffffffffffffffffffffffffffffffffffff166003600085815260200190815260200160002060009054906101000a900473ffffffffffffffffffffffffffffffffffffffff1673ffffffffffffffffffffffffffffffffffffffff16141515611b37576040517f08c379a00000000000000000000000000000000000000000000000000000000081526004018080602001828103825260248152602001807f4f6e6c792073746f7265206f776e6572732063616e20656469742070726f647581526020017f637473210000000000000000000000000000000000000000000000000000000081525060400191505060405180910390fd5b8060046000858152602001908152602001600020600084815260200190815260200160002060030181905550806006600084815260200190815260200160002060030181905550505050565b600260003373ffffffffffffffffffffffffffffffffffffffff1673ffffffffffffffffffffffffffffffffffffffff16815260200190815260200160002060009054906101000a900460ff161515611c6a576040517f08c379a00000000000000000000000000000000000000000000000000000000081526004018080602001828103825260308152602001807f4f6e6c792073746f7265206f776e6572732063616e2072656d6f76652074686581526020017f69722073746f72652066726f6e7473210000000000000000000000000000000081525060400191505060405180910390fd5b6003600082815260200190815260200160002060006101000a81549073ffffffffffffffffffffffffffffffffffffffff021916905560086001600760008481526020019081526020016000205403815481101515611cc557fe5b906000526020600020016000905560008090505b6005600083815260200190815260200160002080549050811015611d7d576004600083815260200190815260200160002060006005600085815260200190815260200160002083815481101515611d2c57fe5b90600052602060002001548152602001908152602001600020600080820160009055600182016000905560028201600090556003820160009055600482016000905550508080600101915050611cd9565b50600560008281526020019081526020016000206000611d9d9190611df9565b50565b600060016005600084815260200190815260200160002080549050019050919050565b60a06040519081016040528060008019168152602001600081526020016000801916815260200160008152602001600081525090565b5080546000825590600052602060002090810190611e179190611e1a565b50565b611e3c91905b80821115611e38576000816000905550600101611e20565b5090565b9056fea165627a7a72305820856bcbee2993c01fbc8eecc9643a144e7fadfc4ba12ad9da9117b85f33cab89f0029",
  "source": "pragma solidity ^0.5;\n\n\ncontract Marketplace {\n\n    struct Product {\n        bytes32 storeName;\n        uint256 id;\n        bytes32 name;\n        uint256 price;\n        uint256 amount;\n    }\n\n    address public manager;\n\n    mapping(address => bool) public isAdmin;\n    mapping(address => bool) public isStoreOwner;\n\n    /* maps a store to its owner */\n    mapping(bytes32 => address payable) public storeToOwner;\n\n    /* maps stores and products */\n    mapping(bytes32 => mapping(uint256 => Product)) public storeToProducts;\n\n    /* events */\n    event storeCreated(bytes32 indexed storeName, uint256 indexed storeId);\n\n    /* helpers */\n    mapping(bytes32 => uint256[]) public storeToProductsIds;\n    mapping(uint256 => Product) public idToProduct;\n    mapping(bytes32 => uint256) public storeToStoreId;\n    bytes32[] public storeFronts;\n\n\n    constructor() public {\n        manager = msg.sender;\n    }\n\n    /* managers functionalities */\n    function addAdmin(address _newAdmin) public {\n        require(msg.sender == manager, \"Only manager can add new admins!\");\n        isAdmin[_newAdmin] = true;\n    }\n\n    function removeAdmin(address _currAdmin) public {\n        require(msg.sender == manager, \"Only manager can remove admins!\");\n        isAdmin[_currAdmin] = false;\n    }\n\n    /* admins functionalities */\n    function addStoreOwner(address _newStoreOwner) public {\n        require(isAdmin[msg.sender], \"Only admins can add new store owners!\");\n        isStoreOwner[_newStoreOwner] = true;\n    }\n\n    function removeStoreOwner(address _currStoreOwner) public {\n        require(isAdmin[msg.sender], \"Only admins can remove store owners!\");\n        isStoreOwner[_currStoreOwner] = false;\n    }\n\n    /* storeowners functionalities */\n    function createStoreFront(bytes32 _storeName) public {\n        require(isStoreOwner[msg.sender], \"Only registered store owners can create new store fronts!\");\n        \n        storeToOwner[_storeName] = msg.sender;\n        storeToStoreId[_storeName] = getNewStoreId();\n        storeFronts.push(_storeName);\n\n        emit storeCreated(_storeName, storeToStoreId[_storeName]);\n    }\n\n    function removeStoreFront(bytes32 _storeName) public {\n        require(isStoreOwner[msg.sender], \"Only store owners can remove their store fronts!\");\n        \n        delete storeToOwner[_storeName];\n        delete storeFronts[storeToStoreId[_storeName]-1];\n        \n        for(uint256 i=0; i<storeToProductsIds[_storeName].length; i++) {\n            delete storeToProducts[_storeName][storeToProductsIds[_storeName][i]];\n        }\n\n        delete storeToProductsIds[_storeName];\n    }\n\n    function addProduct(\n        bytes32 _storeName, \n        bytes32 _prName, \n        uint256 _prPrice, \n        uint256 _prAmount) \n        public returns (uint256 prId) \n    {\n        require(storeToOwner[_storeName] == msg.sender, \"Only store owners can add new products!\");\n\n        prId = getNewProductId(_storeName);\n\n        Product memory product = Product(_storeName, prId, _prName, _prPrice, _prAmount);\n\n        /* add product to store */\n        storeToProducts[_storeName][prId] = product;\n\n        /* update helpers */\n        idToProduct[prId] = product;\n        storeToProductsIds[_storeName].push(prId);\n\n        return prId;\n    }\n\n    function removeProduct(bytes32 _storeName, uint256 _prId) public {\n        require(storeToOwner[_storeName] == msg.sender, \"Only store owners can add new products!\");\n\n        delete storeToProducts[_storeName][_prId];\n        \n        /* update helpers */\n        delete idToProduct[_prId];\n        delete storeToProductsIds[_storeName][_prId-1];\n    }\n\n    function editProductPrice(bytes32 _storeName, uint256 _prId, uint256 _newPrice) public {\n        require(storeToOwner[_storeName] == msg.sender, \"Only store owners can edit products!\");\n\n        storeToProducts[_storeName][_prId].price = _newPrice;\n        idToProduct[_prId].price = _newPrice;\n    }\n\n    function buyProduct(bytes32 _storeName, uint256 _prId) public payable {\n        require(storeToOwner[_storeName] != address(0), \"Store does not exist!\");\n        require(msg.value == storeToProducts[_storeName][_prId].price, \"Sent Ethers is not enough!\");\n        /* @@@ improve on this @@@ */\n        require(_storeName == storeToProducts[_storeName][_prId].storeName, \"Required product is not in this store!\");\n        require(storeToProducts[_storeName][_prId].amount > 0, \"No more products available!\");\n\n        storeToOwner[_storeName].transfer(msg.value);\n        storeToProducts[_storeName][_prId].amount--;\n        idToProduct[_prId].amount--;\n    }\n\n    /* helpers */\n    function getNewProductId(bytes32 _storeName) private view returns (uint256) {\n        /* IDs starts from 1 */\n        return storeToProductsIds[_storeName].length + 1;\n    }\n\n    function getNewStoreId() public view returns (uint256) {\n        /* IDs starts from 1 */\n        return storeFronts.length + 1;\n    }\n\n    function getStoreFronts() public view returns (bytes32[] memory) {\n        return storeFronts;\n    }\n\n    function getProductsIdsInStore(bytes32 _storeName) public view returns (uint256[] memory) {\n        return storeToProductsIds[_storeName];\n    }\n\n    function getProductDetails(uint256 _prId) public view returns (bytes32, uint256, bytes32, uint256, uint256) {\n        Product memory product = idToProduct[_prId];\n        return (product.storeName, product.id, product.name, product.price, product.amount);\n    }\n}",
  "sourcePath": "/home/f/ConsenSysDevProgram/eth-bootcamp-final-project/contracts/Marketplace.sol",
  "compiler": {
    "name": "solc",
    "version": "0.5.0+commit.1d4f565a.Emscripten.clang"
  },
  "schemaVersion": "3.0.0",
  "updatedAt": "2019-01-24T08:29:39.187Z",
  "devdoc": {
    "methods": {}
  },
  "userdoc": {
    "methods": {}
  }
}