{
  "contractName": "Storefront",
  "abi": [
    {
      "constant": true,
      "inputs": [
        {
          "name": "",
          "type": "uint256"
        }
      ],
      "name": "idToProduct",
      "outputs": [
        {
          "name": "id",
          "type": "uint256"
        },
        {
          "name": "name",
          "type": "bytes32"
        },
        {
          "name": "price",
          "type": "uint256"
        },
        {
          "name": "quantity",
          "type": "uint256"
        }
      ],
      "payable": false,
      "stateMutability": "view",
      "type": "function"
    },
    {
      "constant": true,
      "inputs": [],
      "name": "storeName",
      "outputs": [
        {
          "name": "",
          "type": "bytes32"
        }
      ],
      "payable": false,
      "stateMutability": "view",
      "type": "function"
    },
    {
      "constant": true,
      "inputs": [
        {
          "name": "",
          "type": "uint256"
        }
      ],
      "name": "productsIds",
      "outputs": [
        {
          "name": "",
          "type": "uint256"
        }
      ],
      "payable": false,
      "stateMutability": "view",
      "type": "function"
    },
    {
      "constant": true,
      "inputs": [],
      "name": "storeowner",
      "outputs": [
        {
          "name": "",
          "type": "address"
        }
      ],
      "payable": false,
      "stateMutability": "view",
      "type": "function"
    },
    {
      "constant": true,
      "inputs": [
        {
          "name": "",
          "type": "uint256"
        }
      ],
      "name": "products",
      "outputs": [
        {
          "name": "id",
          "type": "uint256"
        },
        {
          "name": "name",
          "type": "bytes32"
        },
        {
          "name": "price",
          "type": "uint256"
        },
        {
          "name": "quantity",
          "type": "uint256"
        }
      ],
      "payable": false,
      "stateMutability": "view",
      "type": "function"
    },
    {
      "inputs": [
        {
          "name": "_storeName",
          "type": "bytes32"
        },
        {
          "name": "_storeowner",
          "type": "address"
        }
      ],
      "payable": false,
      "stateMutability": "nonpayable",
      "type": "constructor"
    },
    {
      "constant": false,
      "inputs": [
        {
          "name": "_prName",
          "type": "bytes32"
        },
        {
          "name": "_prPrice",
          "type": "uint256"
        },
        {
          "name": "_prQuantity",
          "type": "uint256"
        }
      ],
      "name": "addProduct",
      "outputs": [
        {
          "name": "prId",
          "type": "uint256"
        }
      ],
      "payable": false,
      "stateMutability": "nonpayable",
      "type": "function"
    },
    {
      "constant": false,
      "inputs": [
        {
          "name": "_prId",
          "type": "uint256"
        }
      ],
      "name": "removeProduct",
      "outputs": [],
      "payable": false,
      "stateMutability": "nonpayable",
      "type": "function"
    },
    {
      "constant": false,
      "inputs": [
        {
          "name": "_prId",
          "type": "uint256"
        },
        {
          "name": "_newPrice",
          "type": "uint256"
        }
      ],
      "name": "editProductPrice",
      "outputs": [],
      "payable": false,
      "stateMutability": "nonpayable",
      "type": "function"
    },
    {
      "constant": false,
      "inputs": [
        {
          "name": "_prId",
          "type": "uint256"
        },
        {
          "name": "_quantity",
          "type": "uint256"
        }
      ],
      "name": "buyProduct",
      "outputs": [],
      "payable": true,
      "stateMutability": "payable",
      "type": "function"
    },
    {
      "constant": false,
      "inputs": [],
      "name": "withdrawFunds",
      "outputs": [],
      "payable": false,
      "stateMutability": "nonpayable",
      "type": "function"
    },
    {
      "constant": false,
      "inputs": [
        {
          "name": "_txOrigin",
          "type": "address"
        }
      ],
      "name": "kill",
      "outputs": [],
      "payable": false,
      "stateMutability": "nonpayable",
      "type": "function"
    },
    {
      "constant": true,
      "inputs": [],
      "name": "getProductsIds",
      "outputs": [
        {
          "name": "",
          "type": "uint256[]"
        }
      ],
      "payable": false,
      "stateMutability": "view",
      "type": "function"
    },
    {
      "constant": true,
      "inputs": [
        {
          "name": "_prId",
          "type": "uint256"
        }
      ],
      "name": "getProductDetails",
      "outputs": [
        {
          "name": "",
          "type": "uint256"
        },
        {
          "name": "",
          "type": "bytes32"
        },
        {
          "name": "",
          "type": "uint256"
        },
        {
          "name": "",
          "type": "uint256"
        }
      ],
      "payable": false,
      "stateMutability": "view",
      "type": "function"
    }
  ],
  "bytecode": "0x608060405234801561001057600080fd5b50604051604080610fe78339810180604052604081101561003057600080fd5b810190808051906020019092919080519060200190929190505050806000806101000a81548173ffffffffffffffffffffffffffffffffffffffff021916908373ffffffffffffffffffffffffffffffffffffffff160217905550816001819055505050610f44806100a36000396000f3fe6080604052600436106100c5576000357c0100000000000000000000000000000000000000000000000000000000900463ffffffff16806317a706ad146100ca57806324600fc31461010f5780634316af4714610126578063521936e61461018a57806352656a38146101b557806353b62866146102185780635ee95cae146102505780636813b53b1461028b578063712611dd146102ef57806371299e361461033e5780637acc0b20146103955780637ebc0a82146103f9578063cbf0b0c014610465575b600080fd5b3480156100d657600080fd5b5061010d600480360360408110156100ed57600080fd5b8101908080359060200190929190803590602001909291905050506104b6565b005b34801561011b57600080fd5b506101246105e7565b005b34801561013257600080fd5b5061015f6004803603602081101561014957600080fd5b8101908080359060200190929190505050610731565b6040518085815260200184815260200183815260200182815260200194505050505060405180910390f35b34801561019657600080fd5b5061019f610761565b6040518082815260200191505060405180910390f35b3480156101c157600080fd5b50610202600480360360608110156101d857600080fd5b81019080803590602001909291908035906020019092919080359060200190929190505050610767565b6040518082815260200191505060405180910390f35b61024e6004803603604081101561022e57600080fd5b810190808035906020019092919080359060200190929190505050610958565b005b34801561025c57600080fd5b506102896004803603602081101561027357600080fd5b8101908080359060200190929190505050610af9565b005b34801561029757600080fd5b506102c4600480360360208110156102ae57600080fd5b8101908080359060200190929190505050610c7f565b6040518085815260200184815260200183815260200182815260200194505050505060405180910390f35b3480156102fb57600080fd5b506103286004803603602081101561031257600080fd5b8101908080359060200190929190505050610cfa565b6040518082815260200191505060405180910390f35b34801561034a57600080fd5b50610353610d1d565b604051808273ffffffffffffffffffffffffffffffffffffffff1673ffffffffffffffffffffffffffffffffffffffff16815260200191505060405180910390f35b3480156103a157600080fd5b506103ce600480360360208110156103b857600080fd5b8101908080359060200190929190505050610d42565b6040518085815260200184815260200183815260200182815260200194505050505060405180910390f35b34801561040557600080fd5b5061040e610d81565b6040518080602001828103825283818151815260200191508051906020019060200280838360005b83811015610451578082015181840152602081019050610436565b505050509050019250505060405180910390f35b34801561047157600080fd5b506104b46004803603602081101561048857600080fd5b81019080803573ffffffffffffffffffffffffffffffffffffffff169060200190929190505050610dd9565b005b3373ffffffffffffffffffffffffffffffffffffffff166000809054906101000a900473ffffffffffffffffffffffffffffffffffffffff1673ffffffffffffffffffffffffffffffffffffffff161415156105a0576040517f08c379a00000000000000000000000000000000000000000000000000000000081526004018080602001828103825260238152602001807f4f6e6c792073746f72656f776e6572732063616e20656469742070726f64756381526020017f747321000000000000000000000000000000000000000000000000000000000081525060400191505060405180910390fd5b806002600184038154811015156105b357fe5b9060005260206000209060040201600201819055508060036000848152602001908152602001600020600201819055505050565b3373ffffffffffffffffffffffffffffffffffffffff166000809054906101000a900473ffffffffffffffffffffffffffffffffffffffff1673ffffffffffffffffffffffffffffffffffffffff161415156106d1576040517f08c379a00000000000000000000000000000000000000000000000000000000081526004018080602001828103825260238152602001807f4f6e6c792073746f72656f776e65722063616e2077697468647261772066756e81526020017f647321000000000000000000000000000000000000000000000000000000000081525060400191505060405180910390fd5b3373ffffffffffffffffffffffffffffffffffffffff166108fc3073ffffffffffffffffffffffffffffffffffffffff16319081150290604051600060405180830381858888f1935050505015801561072e573d6000803e3d6000fd5b50565b60036020528060005260406000206000915090508060000154908060010154908060020154908060030154905084565b60015481565b60003373ffffffffffffffffffffffffffffffffffffffff166000809054906101000a900473ffffffffffffffffffffffffffffffffffffffff1673ffffffffffffffffffffffffffffffffffffffff16141515610853576040517f08c379a00000000000000000000000000000000000000000000000000000000081526004018080602001828103825260268152602001807f4f6e6c792073746f72656f776e6572732063616e20616464206e65772070726f81526020017f647563747321000000000000000000000000000000000000000000000000000081525060400191505060405180910390fd5b61085b610edc565b9050610865610eec565b60806040519081016040528083815260200186815260200185815260200184815250905060028190806001815401808255809150509060018203906000526020600020906004020160009091929091909150600082015181600001556020820151816001015560408201518160020155606082015181600301555050508060036000848152602001908152602001600020600082015181600001556020820151816001015560408201518160020155606082015181600301559050506004829080600181540180825580915050906001820390600052602060002001600090919290919091505550819150509392505050565b34816003600085815260200190815260200160002060020154021415156109e7576040517f08c379a000000000000000000000000000000000000000000000000000000000815260040180806020018281038252601a8152602001807f53656e7420457468657273206973206e6f7420656e6f7567682100000000000081525060200191505060405180910390fd5b80600360008481526020019081526020016000206003015410151515610a75576040517f08c379a00000000000000000000000000000000000000000000000000000000081526004018080602001828103825260208152602001807f4e6f7420656e6f756768207069656365732061726520617661696c61626c652181525060200191505060405180910390fd5b80600260018403815481101515610a8857fe5b90600052602060002090600402016003015403600260018403815481101515610aad57fe5b9060005260206000209060040201600301819055508060036000848152602001908152602001600020600301540360036000848152602001908152602001600020600301819055505050565b3373ffffffffffffffffffffffffffffffffffffffff166000809054906101000a900473ffffffffffffffffffffffffffffffffffffffff1673ffffffffffffffffffffffffffffffffffffffff16141515610be3576040517f08c379a00000000000000000000000000000000000000000000000000000000081526004018080602001828103825260258152602001807f4f6e6c792073746f72656f776e6572732063616e2072656d6f76652070726f6481526020017f756374732100000000000000000000000000000000000000000000000000000081525060400191505060405180910390fd5b600260018203815481101515610bf557fe5b90600052602060002090600402016000808201600090556001820160009055600282016000905560038201600090555050600360008281526020019081526020016000206000808201600090556001820160009055600282016000905560038201600090555050600460018203815481101515610c6e57fe5b906000526020600020016000905550565b600080600080610c8d610eec565b6003600087815260200190815260200160002060806040519081016040529081600082015481526020016001820154815260200160028201548152602001600382015481525050905080600001518160200151826040015183606001519450945094509450509193509193565b600481815481101515610d0957fe5b906000526020600020016000915090505481565b6000809054906101000a900473ffffffffffffffffffffffffffffffffffffffff1681565b600281815481101515610d5157fe5b90600052602060002090600402016000915090508060000154908060010154908060020154908060030154905084565b60606004805480602002602001604051908101604052809291908181526020018280548015610dcf57602002820191906000526020600020905b815481526020019060010190808311610dbb575b5050505050905090565b8073ffffffffffffffffffffffffffffffffffffffff166000809054906101000a900473ffffffffffffffffffffffffffffffffffffffff1673ffffffffffffffffffffffffffffffffffffffff16141515610ec3576040517f08c379a000000000000000000000000000000000000000000000000000000000815260040180806020018281038252602e8152602001807f4f6e6c792073746f72656f776e6572732063616e2072656d6f7665207468656981526020017f722073746f726566726f6e74732100000000000000000000000000000000000081525060400191505060405180910390fd5b8073ffffffffffffffffffffffffffffffffffffffff16ff5b6000600160028054905001905090565b60806040519081016040528060008152602001600080191681526020016000815260200160008152509056fea165627a7a72305820d79938406f14fd81e6be9859eb8a2985c2caab6aa67c1a2a205284707840e3be0029",
  "source": "pragma solidity ^0.5;\n\n\ncontract Storefront {\n\n    address public storeowner;\n    bytes32 public storeName;\n\n    struct Product {\n        uint256 id;\n        bytes32 name;\n        uint256 price;\n        uint256 quantity;\n    }\n\n    Product[] public products;\n    mapping(uint256 => Product) public idToProduct;\n    \n    uint256[] public productsIds;\n\n    /* storeowners functionalities */\n    constructor(bytes32 _storeName, address _storeowner) public {\n        storeowner = _storeowner;\n        storeName = _storeName;\n    }\n\n    function addProduct(\n        bytes32 _prName, \n        uint256 _prPrice, \n        uint256 _prQuantity) \n        public returns (uint256 prId) \n    {\n        require(storeowner == msg.sender, \"Only storeowners can add new products!\");\n\n        prId = getNewProductId();\n        Product memory product = Product(prId, _prName, _prPrice, _prQuantity);\n\n        /* add product */\n        products.push(product);\n        idToProduct[prId] = product;\n        productsIds.push(prId);\n\n        return prId;\n    }\n\n    function removeProduct(uint256 _prId) public {\n        require(storeowner == msg.sender, \"Only storeowners can remove products!\");\n\n        /* remove product */\n        delete products[_prId-1];\n        delete idToProduct[_prId];\n        delete productsIds[_prId-1];\n    }\n\n    function editProductPrice(uint256 _prId, uint256 _newPrice) public {\n        require(storeowner == msg.sender, \"Only storeowners can edit products!\");\n\n        /* update prices */\n        products[_prId-1].price = _newPrice;\n        idToProduct[_prId].price = _newPrice;\n    }\n\n    function buyProduct(uint256 _prId, uint256 _quantity) public payable {\n        require(idToProduct[_prId].price * _quantity == msg.value, \"Sent Ethers is not enough!\");\n        require(idToProduct[_prId].quantity >= _quantity, \"Not enough pieces are available!\");\n\n        /* update product */\n        products[_prId-1].quantity = products[_prId-1].quantity - _quantity;\n        idToProduct[_prId].quantity = idToProduct[_prId].quantity - _quantity;\n    }\n\n    function withdrawFunds() public {\n        require(storeowner == msg.sender, \"Only storeowner can withdraw funds!\");\n\n        msg.sender.transfer(address(this).balance);\n    }\n\n    /* destroy the contract and reclaim the leftover funds */\n    function kill(address payable _txOrigin) public {\n        require(storeowner == _txOrigin, \"Only storeowners can remove their storefronts!\");\n        selfdestruct(_txOrigin);\n    }\n\n    /* helpers */\n    function getNewProductId() private view returns (uint256) {\n        /* IDs starts from 1 */\n        return products.length + 1;\n    }\n\n    function getProductsIds() public view returns (uint256[] memory) {\n        return productsIds;\n    }\n\n    function getProductDetails(uint256 _prId) public view returns (uint256, bytes32, uint256, uint256) {\n        Product memory product = idToProduct[_prId];\n        return (product.id, product.name, product.price, product.quantity);\n    }\n}",
  "sourcePath": "/home/f/ConsenSysDevProgram/eth-bootcamp-final-project/contracts/Storefront.sol",
  "compiler": {
    "name": "solc",
    "version": "0.5.0+commit.1d4f565a.Emscripten.clang"
  },
  "schemaVersion": "3.0.0",
  "updatedAt": "2019-01-25T18:16:06.396Z",
  "devdoc": {
    "methods": {}
  },
  "userdoc": {
    "methods": {}
  }
}