{
  "contractName": "Storefront",
  "abi": [
    {
      "constant": true,
      "inputs": [
        {
          "name": "",
          "type": "uint256"
        }
      ],
      "name": "idToProduct",
      "outputs": [
        {
          "name": "id",
          "type": "uint256"
        },
        {
          "name": "name",
          "type": "bytes32"
        },
        {
          "name": "price",
          "type": "uint256"
        },
        {
          "name": "quantity",
          "type": "uint256"
        }
      ],
      "payable": false,
      "stateMutability": "view",
      "type": "function"
    },
    {
      "constant": true,
      "inputs": [],
      "name": "storeName",
      "outputs": [
        {
          "name": "",
          "type": "bytes32"
        }
      ],
      "payable": false,
      "stateMutability": "view",
      "type": "function"
    },
    {
      "constant": true,
      "inputs": [
        {
          "name": "",
          "type": "uint256"
        }
      ],
      "name": "productsIds",
      "outputs": [
        {
          "name": "",
          "type": "uint256"
        }
      ],
      "payable": false,
      "stateMutability": "view",
      "type": "function"
    },
    {
      "constant": true,
      "inputs": [],
      "name": "storeowner",
      "outputs": [
        {
          "name": "",
          "type": "address"
        }
      ],
      "payable": false,
      "stateMutability": "view",
      "type": "function"
    },
    {
      "constant": true,
      "inputs": [],
      "name": "stopped",
      "outputs": [
        {
          "name": "",
          "type": "bool"
        }
      ],
      "payable": false,
      "stateMutability": "view",
      "type": "function"
    },
    {
      "constant": true,
      "inputs": [
        {
          "name": "",
          "type": "uint256"
        }
      ],
      "name": "products",
      "outputs": [
        {
          "name": "id",
          "type": "uint256"
        },
        {
          "name": "name",
          "type": "bytes32"
        },
        {
          "name": "price",
          "type": "uint256"
        },
        {
          "name": "quantity",
          "type": "uint256"
        }
      ],
      "payable": false,
      "stateMutability": "view",
      "type": "function"
    },
    {
      "inputs": [
        {
          "name": "_storeName",
          "type": "bytes32"
        },
        {
          "name": "_storeowner",
          "type": "address"
        }
      ],
      "payable": false,
      "stateMutability": "nonpayable",
      "type": "constructor"
    },
    {
      "constant": false,
      "inputs": [
        {
          "name": "_prName",
          "type": "bytes32"
        },
        {
          "name": "_prPrice",
          "type": "uint256"
        },
        {
          "name": "_prQuantity",
          "type": "uint256"
        }
      ],
      "name": "addProduct",
      "outputs": [
        {
          "name": "prId",
          "type": "uint256"
        }
      ],
      "payable": false,
      "stateMutability": "nonpayable",
      "type": "function"
    },
    {
      "constant": false,
      "inputs": [
        {
          "name": "_prId",
          "type": "uint256"
        }
      ],
      "name": "removeProduct",
      "outputs": [],
      "payable": false,
      "stateMutability": "nonpayable",
      "type": "function"
    },
    {
      "constant": false,
      "inputs": [
        {
          "name": "_prId",
          "type": "uint256"
        },
        {
          "name": "_newPrice",
          "type": "uint256"
        }
      ],
      "name": "editProductPrice",
      "outputs": [],
      "payable": false,
      "stateMutability": "nonpayable",
      "type": "function"
    },
    {
      "constant": false,
      "inputs": [],
      "name": "withdrawFunds",
      "outputs": [],
      "payable": false,
      "stateMutability": "nonpayable",
      "type": "function"
    },
    {
      "constant": false,
      "inputs": [
        {
          "name": "_prId",
          "type": "uint256"
        },
        {
          "name": "_quantity",
          "type": "uint256"
        }
      ],
      "name": "buyProduct",
      "outputs": [],
      "payable": true,
      "stateMutability": "payable",
      "type": "function"
    },
    {
      "constant": false,
      "inputs": [
        {
          "name": "_txOrigin",
          "type": "address"
        }
      ],
      "name": "kill",
      "outputs": [],
      "payable": false,
      "stateMutability": "nonpayable",
      "type": "function"
    },
    {
      "constant": false,
      "inputs": [],
      "name": "stopContract",
      "outputs": [],
      "payable": false,
      "stateMutability": "nonpayable",
      "type": "function"
    },
    {
      "constant": true,
      "inputs": [],
      "name": "getProductsIds",
      "outputs": [
        {
          "name": "",
          "type": "uint256[]"
        }
      ],
      "payable": false,
      "stateMutability": "view",
      "type": "function"
    },
    {
      "constant": true,
      "inputs": [
        {
          "name": "_prId",
          "type": "uint256"
        }
      ],
      "name": "getProductDetails",
      "outputs": [
        {
          "name": "",
          "type": "uint256"
        },
        {
          "name": "",
          "type": "bytes32"
        },
        {
          "name": "",
          "type": "uint256"
        },
        {
          "name": "",
          "type": "uint256"
        }
      ],
      "payable": false,
      "stateMutability": "view",
      "type": "function"
    }
  ],
  "bytecode": "0x60806040526000600260006101000a81548160ff02191690831515021790555034801561002b57600080fd5b506040516040806113148339810180604052604081101561004b57600080fd5b810190808051906020019092919080519060200190929190505050806000806101000a81548173ffffffffffffffffffffffffffffffffffffffff021916908373ffffffffffffffffffffffffffffffffffffffff160217905550816001819055505050611256806100be6000396000f3fe6080604052600436106100db576000357c0100000000000000000000000000000000000000000000000000000000900463ffffffff16806312253a6c146100e057806317a706ad146100f757806324600fc31461013c5780634316af4714610153578063521936e6146101b757806352656a38146101e257806353b62866146102455780635ee95cae1461027d5780636813b53b146102b8578063712611dd1461031c57806371299e361461036b57806375f12b21146103c25780637acc0b20146103f15780637ebc0a8214610455578063cbf0b0c0146104c1575b600080fd5b3480156100ec57600080fd5b506100f5610512565b005b34801561010357600080fd5b5061013a6004803603604081101561011a57600080fd5b810190808035906020019092919080359060200190929190505050610619565b005b34801561014857600080fd5b5061015161075a565b005b34801561015f57600080fd5b5061018c6004803603602081101561017657600080fd5b81019080803590602001909291905050506108a4565b6040518085815260200184815260200183815260200182815260200194505050505060405180910390f35b3480156101c357600080fd5b506101cc6108d4565b6040518082815260200191505060405180910390f35b3480156101ee57600080fd5b5061022f6004803603606081101561020557600080fd5b810190808035906020019092919080359060200190929190803590602001909291905050506108da565b6040518082815260200191505060405180910390f35b61027b6004803603604081101561025b57600080fd5b810190808035906020019092919080359060200190929190505050610acb565b005b34801561028957600080fd5b506102b6600480360360208110156102a057600080fd5b8101908080359060200190929190505050610d47565b005b3480156102c457600080fd5b506102f1600480360360208110156102db57600080fd5b8101908080359060200190929190505050610eed565b6040518085815260200184815260200183815260200182815260200194505050505060405180910390f35b34801561032857600080fd5b506103556004803603602081101561033f57600080fd5b8101908080359060200190929190505050610f68565b6040518082815260200191505060405180910390f35b34801561037757600080fd5b50610380610f8b565b604051808273ffffffffffffffffffffffffffffffffffffffff1673ffffffffffffffffffffffffffffffffffffffff16815260200191505060405180910390f35b3480156103ce57600080fd5b506103d7610fb0565b604051808215151515815260200191505060405180910390f35b3480156103fd57600080fd5b5061042a6004803603602081101561041457600080fd5b8101908080359060200190929190505050610fc3565b6040518085815260200184815260200183815260200182815260200194505050505060405180910390f35b34801561046157600080fd5b5061046a611002565b6040518080602001828103825283818151815260200191508051906020019060200280838360005b838110156104ad578082015181840152602081019050610492565b505050509050019250505060405180910390f35b3480156104cd57600080fd5b50610510600480360360208110156104e457600080fd5b81019080803573ffffffffffffffffffffffffffffffffffffffff16906020019092919050505061105a565b005b3373ffffffffffffffffffffffffffffffffffffffff166000809054906101000a900473ffffffffffffffffffffffffffffffffffffffff1673ffffffffffffffffffffffffffffffffffffffff161415156105fc576040517f08c379a00000000000000000000000000000000000000000000000000000000081526004018080602001828103825260238152602001807f5468697320697320612073746f72656f776e65722d6f6e6c792066756e63746981526020017f6f6e21000000000000000000000000000000000000000000000000000000000081525060400191505060405180910390fd5b6001600260006101000a81548160ff021916908315150217905550565b3373ffffffffffffffffffffffffffffffffffffffff166000809054906101000a900473ffffffffffffffffffffffffffffffffffffffff1673ffffffffffffffffffffffffffffffffffffffff16141515610703576040517f08c379a00000000000000000000000000000000000000000000000000000000081526004018080602001828103825260238152602001807f5468697320697320612073746f72656f776e65722d6f6e6c792066756e63746981526020017f6f6e21000000000000000000000000000000000000000000000000000000000081525060400191505060405180910390fd5b80600361071a60018561115d90919063ffffffff16565b81548110151561072657fe5b9060005260206000209060040201600201819055508060046000848152602001908152602001600020600201819055505050565b3373ffffffffffffffffffffffffffffffffffffffff166000809054906101000a900473ffffffffffffffffffffffffffffffffffffffff1673ffffffffffffffffffffffffffffffffffffffff16141515610844576040517f08c379a00000000000000000000000000000000000000000000000000000000081526004018080602001828103825260238152602001807f5468697320697320612073746f72656f776e65722d6f6e6c792066756e63746981526020017f6f6e21000000000000000000000000000000000000000000000000000000000081525060400191505060405180910390fd5b3373ffffffffffffffffffffffffffffffffffffffff166108fc3073ffffffffffffffffffffffffffffffffffffffff16319081150290604051600060405180830381858888f193505050501580156108a1573d6000803e3d6000fd5b50565b60046020528060005260406000206000915090508060000154908060010154908060020154908060030154905084565b60015481565b60003373ffffffffffffffffffffffffffffffffffffffff166000809054906101000a900473ffffffffffffffffffffffffffffffffffffffff1673ffffffffffffffffffffffffffffffffffffffff161415156109c6576040517f08c379a00000000000000000000000000000000000000000000000000000000081526004018080602001828103825260238152602001807f5468697320697320612073746f72656f776e65722d6f6e6c792066756e63746981526020017f6f6e21000000000000000000000000000000000000000000000000000000000081525060400191505060405180910390fd5b6109ce61117f565b90506109d86111fe565b60806040519081016040528083815260200186815260200185815260200184815250905060038190806001815401808255809150509060018203906000526020600020906004020160009091929091909150600082015181600001556020820151816001015560408201518160020155606082015181600301555050508060046000848152602001908152602001600020600082015181600001556020820151816001015560408201518160020155606082015181600301559050506005829080600181540180825580915050906001820390600052602060002001600090919290919091505550819150509392505050565b60001515600260009054906101000a900460ff161515141515610b56576040517f08c379a00000000000000000000000000000000000000000000000000000000081526004018080602001828103825260198152602001807f5468697320636f6e74726163742069732073746f70706564210000000000000081525060200191505060405180910390fd5b34610b8082600460008681526020019081526020016000206002015461119f90919063ffffffff16565b141515610bf5576040517f08c379a000000000000000000000000000000000000000000000000000000000815260040180806020018281038252601a8152602001807f53656e7420457468657273206973206e6f7420656e6f7567682100000000000081525060200191505060405180910390fd5b80600460008481526020019081526020016000206003015410151515610c83576040517f08c379a00000000000000000000000000000000000000000000000000000000081526004018080602001828103825260208152602001807f4e6f7420656e6f756768207069656365732061726520617661696c61626c652181525060200191505060405180910390fd5b610cc9816003610c9d60018661115d90919063ffffffff16565b815481101515610ca957fe5b90600052602060002090600402016003015461115d90919063ffffffff16565b6003610cdf60018561115d90919063ffffffff16565b815481101515610ceb57fe5b906000526020600020906004020160030181905550610d2981600460008581526020019081526020016000206003015461115d90919063ffffffff16565b60046000848152602001908152602001600020600301819055505050565b3373ffffffffffffffffffffffffffffffffffffffff166000809054906101000a900473ffffffffffffffffffffffffffffffffffffffff1673ffffffffffffffffffffffffffffffffffffffff16141515610e31576040517f08c379a00000000000000000000000000000000000000000000000000000000081526004018080602001828103825260238152602001807f5468697320697320612073746f72656f776e65722d6f6e6c792066756e63746981526020017f6f6e21000000000000000000000000000000000000000000000000000000000081525060400191505060405180910390fd5b6003610e4760018361115d90919063ffffffff16565b815481101515610e5357fe5b906000526020600020906004020160008082016000905560018201600090556002820160009055600382016000905550506004600082815260200190815260200160002060008082016000905560018201600090556002820160009055600382016000905550506005610ed060018361115d90919063ffffffff16565b815481101515610edc57fe5b906000526020600020016000905550565b600080600080610efb6111fe565b6004600087815260200190815260200160002060806040519081016040529081600082015481526020016001820154815260200160028201548152602001600382015481525050905080600001518160200151826040015183606001519450945094509450509193509193565b600581815481101515610f7757fe5b906000526020600020016000915090505481565b6000809054906101000a900473ffffffffffffffffffffffffffffffffffffffff1681565b600260009054906101000a900460ff1681565b600381815481101515610fd257fe5b90600052602060002090600402016000915090508060000154908060010154908060020154908060030154905084565b6060600580548060200260200160405190810160405280929190818152602001828054801561105057602002820191906000526020600020905b81548152602001906001019080831161103c575b5050505050905090565b8073ffffffffffffffffffffffffffffffffffffffff166000809054906101000a900473ffffffffffffffffffffffffffffffffffffffff1673ffffffffffffffffffffffffffffffffffffffff16141515611144576040517f08c379a000000000000000000000000000000000000000000000000000000000815260040180806020018281038252602e8152602001807f4f6e6c792073746f72656f776e6572732063616e2072656d6f7665207468656981526020017f722073746f726566726f6e74732100000000000000000000000000000000000081525060400191505060405180910390fd5b8073ffffffffffffffffffffffffffffffffffffffff16ff5b600082821115151561116e57600080fd5b600082840390508091505092915050565b600061119a60016003805490506111dd90919063ffffffff16565b905090565b6000808314156111b257600090506111d7565b600082840290508284828115156111c557fe5b041415156111d257600080fd5b809150505b92915050565b60008082840190508381101515156111f457600080fd5b8091505092915050565b60806040519081016040528060008152602001600080191681526020016000815260200160008152509056fea165627a7a72305820f8269230b2a73ff5dee73e547d12d7e2f5e7507752534db2885ae58e3c95d9700029",
  "source": "pragma solidity ^0.5;\n\n\nimport \"openzeppelin-solidity/contracts/math/SafeMath.sol\";\n\n\ncontract Storefront {\n    using SafeMath for uint256;\n\n    address public storeowner;\n    bytes32 public storeName;\n    bool public stopped = false;\n\n    struct Product {\n        uint256 id;\n        bytes32 name;\n        uint256 price;\n        uint256 quantity;\n    }\n\n    Product[] public products;\n    mapping(uint256 => Product) public idToProduct;\n    \n    uint256[] public productsIds;\n\n    /* modifiers */\n    modifier onlyStoreowner {\n        require(storeowner == msg.sender, \"This is a storeowner-only function!\");\n        _;\n    }\n\n    modifier notStopped {\n        require(stopped == false, \"This contract is stopped!\");\n        _;\n    }\n\n    constructor(bytes32 _storeName, address _storeowner) public {\n        storeowner = _storeowner;\n        storeName = _storeName;\n    }\n\n    /* storeowners functionalities */\n    function addProduct(\n        bytes32 _prName, \n        uint256 _prPrice, \n        uint256 _prQuantity) \n        public  onlyStoreowner returns (uint256 prId) \n    {\n        prId = getNewProductId();\n        Product memory product = Product(prId, _prName, _prPrice, _prQuantity);\n\n        /* add product */\n        products.push(product);\n        idToProduct[prId] = product;\n        productsIds.push(prId);\n\n        return prId;\n    }\n\n    function removeProduct(uint256 _prId) public onlyStoreowner {\n\n        /* remove product */\n        delete products[_prId.sub(1)];\n        delete idToProduct[_prId];\n        delete productsIds[_prId.sub(1)];\n    }\n\n    function editProductPrice(uint256 _prId, uint256 _newPrice) public onlyStoreowner {\n\n        /* update prices */\n        products[_prId.sub(1)].price = _newPrice;\n        idToProduct[_prId].price = _newPrice;\n    }\n\n    function withdrawFunds() public onlyStoreowner {\n        msg.sender.transfer(address(this).balance);\n    }\n\n    /* shoppers functionalities */\n    function buyProduct(uint256 _prId, uint256 _quantity) public notStopped payable {\n        require(idToProduct[_prId].price.mul(_quantity) == msg.value, \"Sent Ethers is not enough!\");\n        require(idToProduct[_prId].quantity >= _quantity, \"Not enough pieces are available!\");\n\n        /* update product */\n        products[_prId.sub(1)].quantity = products[_prId.sub(1)].quantity.sub(_quantity);\n        idToProduct[_prId].quantity = idToProduct[_prId].quantity.sub(_quantity);\n    }\n\n    /* destroy the contract and reclaim the leftover funds */\n    function kill(address payable _txOrigin) public {\n        require(storeowner == _txOrigin, \"Only storeowners can remove their storefronts!\");\n        selfdestruct(_txOrigin);\n    }\n\n    function stopContract() public onlyStoreowner {\n        stopped = true;\n    }\n\n    /* helpers */\n    function getNewProductId() private view returns (uint256) {\n        /* Ids starts from 1 */\n        return products.length.add(1);\n    }\n\n    function getProductsIds() public view returns (uint256[] memory) {\n        return productsIds;\n    }\n\n    function getProductDetails(uint256 _prId) public view returns (uint256, bytes32, uint256, uint256) {\n        Product memory product = idToProduct[_prId];\n        return (product.id, product.name, product.price, product.quantity);\n    }\n}",
  "sourcePath": "/home/f/ConsenSysDevProgram/eth-bootcamp-final-project/contracts/Storefront.sol",
  "compiler": {
    "name": "solc",
    "version": "0.5.0+commit.1d4f565a.Emscripten.clang"
  },
  "schemaVersion": "3.0.0",
  "updatedAt": "2019-01-26T13:36:59.572Z",
  "devdoc": {
    "methods": {}
  },
  "userdoc": {
    "methods": {}
  }
}